:020000040000FA
:10000000608CFF1F650200006D0200006F0200009F
:100010007102000073020000750200000000000081
:100020000000000000000000000000007702000057
:1000300079020000000000007B0200007D02000049
:10004000F52D0000092E00001D2E0000312E0000AD
:10005000452E0000592E00006D2E0000812E00005C
:10006000952E0000A92E0000BD2E0000D12E00000C
:10007000E52E0000F92E00000D2F0000212F0000BA
:100080003D100000951000007F0200007F0200007C
:100090007F0200007F020000ED1000007F020000E0
:1000A0007F0200007F0200007F0200007F0200004C
:1000B0007F0200007F0200007F0200007F0200003C
:1000C0007F0200007F0200007F0200007F0200002C
:1000D0007F0200007F0200007F0200007F0200001C
:1000E0007F0200007F0200007F0200007F0200000C
:1000F0007F0200007F0200007F0200007F020000FC
:100100007F0200007F0200007F0200007F020000EB
:100110007F0200007F0200007F0200007F020000DB
:100120007F0200007F0200007F0200007F020000CB
:100130007F0200007F0200007F0200007F020000BB
:100140007F0200007F0200007F0200007F020000AB
:100150007F0200007F0200007F0200007F0200009B
:100160007F0200007F0200007F0200007F0200008B
:100170007F0200007F0200007F0200007F0200007B
:100180007F0200007F0200007F0200007F0200006B
:100190007F0200007F0200007F0200007F0200005B
:1001A0007F0200007F0200007F0200007F0200004B
:1001B0007F0200007F0200007F0200007F0200003B
:1001C0007F0200007F0200007F0200007F0200002B
:1001D0007F0200007F0200007F0200007F0200001B
:1001E0007F0200007F0200007F0200007F0200000B
:1001F0007F0200007F0200007F0200007F020000FB
:100200007F0200007F0200007F0200007F020000EA
:100210007F0200007F0200007F0200007F020000DA
:100220007F0200007F0200007F020000000000004B
:10023000000000007F0200007F0200007F0200003B
:100240007F0200007F0200007F0200007F020000AA
:10025000DFF80CD000F0C6F900480047293A00004A
:10026000608CFF1F0648804706480047FEE7FEE710
:10027000FEE7FEE7FEE7FEE7FEE7FEE7FEE7FEE756
:1002800099330000510200002DE9F05F054600207F
:1002900092469B4688460646814640241BE02846F7
:1002A00041464746224600F055F953465A46C01A81
:1002B000914110D311461846224600F016F82D1A27
:1002C00067EB01084F4622460120002100F00DF89F
:1002D00017EB00094E41201EA4F10104DFDC484663
:1002E00031462A464346BDE8F09F202A04DB203AE7
:1002F00000FA02F1002070479140C2F1200320FA79
:1003000003F3194390407047F0B480EA0102D40F20
:100310004200B2EB410F02D20246084611464A00A3
:1003200042D0C30DDDB2C1F3C752AD1A202D35DA6C
:10033000C1F3160141F4000204B15242C5F1200696
:1003400002FA06F12A411044B3EBD05F23D0C4B1C6
:10035000012DA0EBC35009DCF0BC4FF0004202EAD3
:10036000C352DBB200F5000000F00DB9400000F10F
:10037000807000EBC350A0F1807040EAD17049005A
:1003800009E0490841EAC071A0EBC35000F5000044
:10039000400800EBC350F0BC00F0ECB86142012211
:1003A00002EB4101001BF6E7F0BC704781F0004111
:1003B000AAE780F00040A7E796230022114600F04C
:1003C000E2B820F00040C10DC0F3160040F4000078
:1003D0007F2901DA00207047962903DCC1F19601DC
:1003E000C84070479639884070470000002801DBFC
:1003F000C0F10040002901DBC1F10041814270479A
:10040000BFFFDFFFFFFFFFFFFFFFFFFFFFFFFFFF5C
:10041000FFFFFFFFFFFFFFFFFFFFFFFFFFFFFFFFEC
:10042000FFFFFFFFFFFFFFFFFFFFFFFFFFFFFFFFDC
:10043000FFFFFFFFFFFFFFFFFFFFFFFFFFFFFFFFCC
:10044000FFFFFFFFFFFFFFFFFFFFFFFFFFFFFFFFBC
:10045000FFFFFFFFFFFFFFFFFFFFFFFFFFFFFFFFAC
:1004600080EA010210B502F00043400022D04A00A9
:100470001FD0010E01EB1261C0F35600C2F3560209
:1004800040F4000042F40002A0FB022000047F3987
:10049000140400D0401C50EA124001D44000491E10
:1004A000C2B20C0604EBD010401C4008802A02D0D7
:1004B00003E0002010BD20F00100002900DA002038
:1004C000184310BD30B480EA010202F0004530F05C
:1004D000004221F0004013D090B1C30DD40DC2F3FF
:1004E0001601C0F31600E41A41F4000140F40002C2
:1004F0007D34914201D3641C00E04900002C02DAF3
:1005000030BC002070474FF400000023914201D31B
:10051000891A034340084FEA4101F7D151B1914292
:1005200002D14FF0004105E002D24FF0010101E09D
:100530006FF0010103EBC450284430BC00F01AB83E
:10054000002801DBC0F10040002901DBC1F10041BE
:1005500088427047202A04DB203A21FA02F0002169
:10056000704721FA02F3D040C2F1200291400843C3
:10057000194670470029A8BF7047401C490008BFB2
:1005800020F00100704710B4B0FA80FC00FA0CF0C3
:1005900050EA010404BF10BC704749B1CCF12004FB
:1005A00021FA04F411FA0CF118BF01212143084388
:1005B000A3EB0C01CB1D4FEA00614FEA102042BFB4
:1005C000002010BC704700EBC35010440029A4BFAA
:1005D00010BC7047401C490008BF20F0010010BC4F
:1005E00070470000064C074D06E0E06840F001034C
:1005F00094E8070098471034AC42F6D3FFF72CFE7E
:10060000D43A0000F43A000070B504460D4600BF2D
:100610003C4884426BD0001D844268D0001D844257
:1006200065D0001D844262D0001D84425FD0001D51
:1006300084425CD0001D844259D0001D844256D0B3
:10064000001D844253D0001D844250D0001D8442BE
:100650004DD0001D84424AD0001D844247D0001D69
:10066000844244D0001D844241D0001D84423ED0CB
:10067000001D84423BD0001D844238D0001D8442BE
:1006800035D0001D844232D0001D84422FD0001D81
:1006900084422CD0001D844229D0001D844226D0E3
:1006A000001D844223D0001D844220D0001D8442BE
:1006B0001DD0001D84421AD0001D844217D0001D99
:1006C000844214D0001D844211D0001D84420ED0FB
:1006D000001D84420BD0001D844208D0001D8442BE
:1006E00005D0001D844202D0001D844200D103E0E9
:1006F000DD2105A000F060FC00BF206865F3080064
:10070000206070BD040801402E2E2F2E2E2F2E2E7D
:100710002F2E2E2F2E2E2F2E2E2F6472697665727D
:10072000732F686333325F6C6C5F647269766572D5
:100730002F7372632F686333325F6C6C5F616F730A
:100740002E6300002DE9F14F86B02B48006A00F0BF
:1007500007012A48006820FA01F62948B6FBF0F0A4
:100760004FF40171B0FBF1FB002405E00120A04033
:10077000584500D902E0641C072CF7D900BF069841
:1007800001F0DEFD02A802F069F91D48039022463F
:100790004FF001094FF0000A48465146FFF7A5FD0A
:1007A00007463A460B4630460021FFF76DFDB4235D
:1007B0000022A0FB037C01FB03C100FB0210114AD5
:1007C0000023CDE9007038460199FFF75DFD0490E4
:1007D000029405AA02A9069801F0DAFE05463DB981
:1007E0000121069801F0D8FC0121069801F064FD72
:1007F000284607B0BDE8F08F004005400080FF1F8D
:10080000A086010000CA9A3B2DE9F0478046894640
:1008100015461E46DDE908A70121404602F042F8D0
:100820000021404602F03EF84FF48021404602F09D
:100830007DF804469CBB4FF4802300224946404685
:1008400002F018F9044654BB4FF48023324629467F
:10085000404602F085F904460CBB4FF48021404627
:1008600001F0D2FF0446D4B9012F03D1B9024046AA
:1008700001F022FB4FF4802301224946404602F05A
:10088000F9F804463CB94FF480233A4651464046B5
:1008900001F0F8FE04460021404601F00DFB24B1B2
:1008A0004FF48021404602F08BF82046BDE8F087E7
:1008B0002DE9F0470746884615461E46DDE9089AA9
:1008C0000121384601F0EEFF0021384601F0EAFF31
:1008D0004FF48021384602F029F80446CCB94FF491
:1008E000802300224146384602F0C4F8044684B909
:1008F0004FF4802332462946384602F031F9044647
:100900003CB94FF4802352464946384602F028F954
:1009100004464FF48021384602F052F82046BDE8E4
:10092000F087000070B504460D46164633462A4649
:100930002146024802F03AFD70BD00004C80FF1FC6
:1009400010B50748074908600748486007488860AD
:100950000748C86000200861084602F056FD10BD37
:10096000B10B00004C80FF1F190C0000F90B0000B8
:10097000390C000070B504460D462A46214602484F
:1009800002F06BFD70BD00004C80FF1F70B5044687
:100990000D46164633462A462146024802F081FD9E
:1009A00070BD00004C80FF1F30B58BB005A801F072
:1009B0006FFA00241FE004EB44021E4B03EB4202DB
:1009C000518804EB440213F8120005AA00F0BCFFA2
:1009D00004EB4403174D05EB43039A8804EB4403EF
:1009E00005EB4303598804EB440315F8130001F0A9
:1009F0007FF9601CC4B2022CDDD30121480300F052
:100A00005FFC012000F0AEF9684602F0C5FB002053
:100A100000904FF0106001904FF4801002904FF45E
:100A2000E020039003200490684602F0B5FA0BB072
:100A300030BD0000603A000010B500F019F8FFF773
:100A4000B3FF002409E004EB4401074A02EB8101F3
:100A5000486800F05DFB601CC4B2032CF3D3012096
:100A600002F068FA10BD00006C3A00007047000008
:100A700030B58BB0684601F00BFA4FF48050ADF8FA
:100A800012004020ADF80A0000240EE004EB4402FE
:100A9000394B03EB8202518804EB440213F8220025
:100AA0006A4600F051FF601CC4B2032CEED306A8C6
:100AB00000F0FAFB002008904FF4004009904FF43A
:100AC00040500A9000240AE004EB44012A4A02EB59
:100AD0008101486806A900F055FB601CC4B2032CD4
:100AE000F2D30020044643E004EB4401224A02EB27
:100AF0008101B1F90800002807DB00F01F02012185
:100B000091401E4A430942F8231000BF04EB4402FF
:100B1000194B03EB8202B2F908000F21002804DB15
:100B20000A07130E164A135406E00A07150E154A53
:100B300000F00F031B1FD55400BF04EB44010E4A05
:100B400002EB8101B1F9080000280DDB00BF00BFF6
:100B500000F01F02012191404209920002F1E022BF
:100B6000C2F8001100BF00BF00BF601CC0B2044645
:100B7000032CB9D30BB030BD6C3A000080E200E02A
:100B800000E400E018ED00E010B50022E0210120B3
:100B9000FFF7FCFE0022E0210120FFF7C3FE10BD9D
:100BA00010B5044621460120FFF7E4FE10BD000009
:100BB00000B587B001A801F06BF901AA0221042059
:100BC00000F0C2FE01AA0121042000F0BDFE312286
:100BD0000221042001F08CF830220121042001F0D0
:100BE00087F80121102000F0C1FB0248FFF7AAFDA1
:100BF00007B000BD00B403407CB504460D46164660
:100C00000123224674210348CDE90056FFF7FCFD7D
:100C10007CBD000000B403407CB504460D4616467A
:100C20000123224674210348CDE90056FFF740FE18
:100C30007CBD000000B4034000B587B04FF4004114
:100C4000012001F00BF801A801F022F90220ADF813
:100C5000060001AA8103012000F076FE032000F0C7
:100C6000ADF94FF40041012001F0C8F807B000BD14
:100C700030B58BB000243848006AC0F302613748B1
:100C80000068C8400521B0FBF1F53548007828B967
:100C9000002000F0BDF8A02000F0B0F90AA800F094
:100CA00081F900208DF828008DF829008DF82A00A0
:100CB00001224FF44041022000F0D4FD0AA800F0C8
:100CC000FDF80121080400F0FBFA01A800F0B6FDD0
:100CD000B820079003200890002005901020029073
:100CE000002003901F20ADF804002220ADF806007C
:100CF00001A800F0B5FC012000F002FC00BF0220BA
:100D000000F076FC01281AD1022000F0C3FB01207C
:100D100000F06EFC012804D0042000F069FC0128DA
:100D200003D1052000F0B6FB09E000F019FC00211A
:100D30004FF4803000F0C4FA00200BB030BD641CCA
:100D4000AC42DCD900F00CFC00214FF4803000F004
:100D5000B7FA6FF00700F0E7004005400080FF1F82
:100D600054CC044070B50446002500BF0CB1012CE2
:100D700000D104E040F2732113A000F01DF900BF80
:100D800000BF2048008800F0010000B104E04FF4EB
:100D90001D710DA000F010F900BF64B91A48007869
:100DA00000F00700022802D16FF0050506E00120DF
:100DB0001649087002E0002014490870A02000F0D5
:100DC0001DF9284670BD00002E2E2F2E2E2F2E2E00
:100DD0002F2E2E2F2E2E2F2E2E2F647269766572B7
:100DE000732F686333325F6C6C5F6472697665720F
:100DF0002F7372632F686333325F6C6C5F636C6B4D
:100E00002E630000FE430540264005406CCC0440A4
:100E100070B50446002500BF0CB1012C00D104E0E0
:100E200040F23D4113A000F0C7F800BF00BF2048CA
:100E3000008800F0010000B104E040F23E410DA046
:100E400000F0BAF800BF64B91A48007800F0070053
:100E5000042802D16FF0050506E00120164908704C
:100E600002E0002014490870A02000F0C7F82846CE
:100E700070BD00002E2E2F2E2E2F2E2E2F2E2E2F19
:100E80002E2E2F2E2E2F647269766572732F686353
:100E900033325F6C6C5F6472697665722F73726354
:100EA0002F686333325F6C6C5F636C6B2E63000082
:100EB000FE4305402640054054CC044070B504462E
:100EC00014B96FF0020548E000BF2078012801D076
:100ED000207800B904E04FF4846121A000F06CF8A0
:100EE00000BF00BF607810B16078012800D104E035
:100EF00040F221411AA000F05FF800BF00BFA078C7
:100F000028B1A078012802D0A078032800D104E0FD
:100F100040F2224112A000F04FF800BF00BF1F486E
:100F2000008800F0010000B104E040F223410CA071
:100F300000F042F800BF607819490870A07818499D
:100F400010310870207820B90120FFF761FF0546B5
:100F500003E00020FFF75CFF0546284670BD000057
:100F60002E2E2F2E2E2F2E2E2F2E2E2F2E2E2F2E9C
:100F70002E2F647269766572732F686333325F6CEB
:100F80006C5F6472697665722F7372632F68633366
:100F9000325F6C6C5F636C6B2E630000FE43054038
:100FA00058CC04400146002009B9C01E03E00022CD
:100FB0000A704A708A70704700BFFEE708B50D4995
:100FC000096AC1F302630C490968D94042F21073FF
:100FD0001944491EB1FBF3F206E0009200BF0099EC
:100FE0004B1E00930029FAD10100A0F10100F4D1B9
:100FF00008BD0000004005400080FF1F08B50C49F7
:10100000096AC1F302630B490968D9400A4B1944C4
:10101000491EB1FBF3F206E0009200BF00994B1E9F
:1010200000930029FAD10100A0F10100F4D108BD1C
:10103000004005400080FF1F8096980010B500BF5B
:101040001148006800F0070004461049486800F0A5
:101050007BF8012814D100BF0C4A5188107800F0A9
:10106000B1FD38B90120A040094909680843084981
:101070000860F1E70549486800F04AF800BF00BF82
:10108000BFF34F8F10BD0000080C05406C3A000004
:101090000880FF1F10B500BF1148006800F007006E
:1010A00004461049086900F04FF8012815D100BF27
:1010B0000C4AD189107B00F085FD40B94FF4807057
:1010C000A04009490968084307490860F0E7054955
:1010D000086900F01DF800BF00BFBFF34F8F10BDBF
:1010E000080C05406C3A00000880FF1F10B5074847
:1010F000006840F4803005490860402000F008F89E
:10110000FFF7B4FCBFF34F8F10BD00000880FF1F36
:1011100010B5044600BF3CB14FF6FF7020434FF6B8
:10112000FF71884200D104E04FF4F9710448FFF7E1
:1011300043FF00BF0348806D20430249886510BD0E
:10114000903A00000010054010B5044600BF3CB1C5
:101150004FF6FF7020434FF6FF71884200D104E044
:1011600040F2FF110548FFF727FF00BF0448406D1C
:10117000204008B1012010BD0020FCE7903A00009B
:10118000001005402DE9F04706460C464FF00009D7
:1011900014B96FF0020980E000BF3EB14FF6FF7056
:1011A00030434FF6FF71884200D104E040F2BD1198
:1011B0003B48FFF701FF00BF00BF206810B1206867
:1011C000802800D104E04FF4DF713548FFF7F4FECA
:1011D00000BF00BF606840B16068102805D060683B
:1011E000202802D06068302800D104E040F2BF110E
:1011F0002B48FFF7E1FE00BF00BFA068032807D01F
:10120000A068012804D0A06810B1A068022800D10D
:1012100004E04FF4E0712248FFF7CEFE00BF00BFAC
:10122000E06818B1E068B0F5004F00D104E040F28A
:10123000C1111B48FFF7C0FE00BF00BF206958B1B5
:101240002069B0F5805F07D02069B0F5005F03D05A
:101250002069B0F5405F00D104E04FF4E17110481F
:10126000FFF7AAFE00BF002515E00120A84030408E
:1012700078B1D4E900010843A16840EA0107D4E944
:101280000301084307430748042101FB0508C8F888
:101290000070681CC5B2102DE7D34846BDE8F08742
:1012A000903A0000101005400146002009B9C01E08
:1012B00005E000220A604A608A60CA600A617047DD
:1012C00070B504460D4600BF2CB11748204316499F
:1012D000884200D103E0712114A0FFF76DFE00BF2A
:1012E00000BF0DB1012D00D103E072210FA0FFF767
:1012F00063FE00BF00BF1C48006900F0010000B1A0
:1013000003E0732109A0FFF757FE00BF012D05D1AF
:1013100015480068A0431449086004E012480068BA
:1013200020431149086070BD11E4F70F2E2E2F2EB7
:101330002E2F2E2E2F2E2E2F2E2E2F2E2E2F64724E
:1013400069766572732F686333325F6C6C5F6472A9
:10135000697665722F7372632F686333325F6C6CCA
:101360005F6663672E6300000080044070B504462A
:101370000D4600BF2CB1114820431049884200D1CE
:1013800003E084210EA0FFF717FE00BF00BF0DB1E0
:10139000012D00D103E0852109A0FFF70DFE00BF5C
:1013A000012D05D115484068A0431449486004E068
:1013B0001248406820431149486070BD3B00070057
:1013C0002E2E2F2E2E2F2E2E2F2E2E2F2E2E2F2E38
:1013D0002E2F647269766572732F686333325F6C87
:1013E0006C5F6472697665722F7372632F68633302
:1013F000325F6C6C5F6663672E63000000800440A0
:1014000070B504460D4600BF2CB111482043104969
:10141000884200D103E096210EA0FFF7CDFD00BF6A
:1014200000BF0DB1012D00D103E0972109A0FFF706
:10143000C3FD00BF012D05D115488068A0431449A4
:10144000886004E01248806820431149886070BDBC
:1014500003BEF0012E2E2F2E2E2F2E2E2F2E2E2FAE
:101460002E2E2F2E2E2F647269766572732F68636D
:1014700033325F6C6C5F6472697665722F7372636E
:101480002F686333325F6C6C5F6663672E630000A6
:101490000080044010B5044600BF24B144F00700AA
:1014A000072800D104E04FF48E7105A0FFF784FDFA
:1014B00000BF1248006820431049086010BD0000BA
:1014C0002E2E2F2E2E2F2E2E2F2E2E2F2E2E2F2E37
:1014D0002E2F647269766572732F686333325F6C86
:1014E0006C5F6472697665722F7372632F68633301
:1014F000325F6C6C5F66636D2E6300002084044075
:1015000010B5044600BF0CB1012C00D104E04FF42B
:10151000BB7103A0FFF750FD00BF1048046010BD71
:101520002E2E2F2E2E2F2E2E2F2E2E2F2E2E2F2ED6
:101530002E2F647269766572732F686333325F6C25
:101540006C5F6472697665722F7372632F686333A0
:10155000325F6C6C5F66636D2E6300008081904229
:1015600038B500240020009000BF1048008800F02B
:101570000200022800D103E0F2210DA0FFF71CFDBC
:1015800000BF00201949086008E00098401C009046
:101590000098642802D96FF0070403E0134800683C
:1015A0000028F2D000BF204638BD0000FE430540B1
:1015B0002E2E2F2E2E2F2E2E2F2E2E2F2E2E2F2E46
:1015C0002E2F647269766572732F686333325F6C95
:1015D0006C5F6472697665722F7372632F68633310
:1015E000325F6C6C5F66636D2E630000409C9942B5
:1015F00010B5044600BF24B144F00700072800D10D
:1016000004E04FF4867106A0FFF7D6FC00BF134834
:101610000068204008B1012010BD0020FCE7000058
:101620002E2E2F2E2E2F2E2E2F2E2E2F2E2E2F2ED5
:101630002E2F647269766572732F686333325F6C24
:101640006C5F6472697665722F7372632F6863339F
:10165000325F6C6C5F66636D2E6300001C84044017
:1016600070B5044600250CB9ED1EC5E000BF6068EA
:10167000A0B16068102811D0606820280ED0606882
:1016800030280BD06068402808D06068502805D00A
:101690006068702802D06068802800D103E0B32120
:1016A00056A0FFF789FC00BF00BFA06840B1A0684A
:1016B000012805D0A068022802D0A068032800D124
:1016C00003E0B4214DA0FFF777FC00BF00BFE06846
:1016D00018B1E068B0F5004F00D103E0B52147A094
:1016E000FFF76AFC00BF00BF206938B12069B0F580
:1016F000805F03D02069B0F5005F00D103E0B62120
:101700003EA0FFF759FC00BF00BF606958B1606997
:10171000B0F5807F07D06069B0F5007F03D06069C5
:10172000B0F5407F00D103E0B72134A0FFF744FCBF
:1017300000BF00BFA069B8B1A069802814D0A0691B
:10174000882811D0A06990280ED0A06998280BD0C5
:10175000A069A02808D0A069A82805D0A069B82849
:1017600002D0A069C02800D103E0B82123A0FFF770
:1017700023FC00BF00BFE06940B1E069012805D04B
:10178000E069022802D0E069032800D103E0B92112
:101790001AA0FFF711FC00BF00BF206A10B1206A39
:1017A000102800D103E0BA2114A0FFF705FC00BF08
:1017B0002088214908606088091D0860D4E901017A
:1017C00008431D4910310860D4E9030108436169E9
:1017D0000843A1690843E1690843174914310860C7
:1017E000081D006820F0100094F8201001F010018E
:1017F0000843114918310860284670BD2E2E2F2E3F
:101800002E2F2E2E2F2E2E2F2E2E2F2E2E2F647279
:1018100069766572732F686333325F6C6C5F6472D4
:10182000697665722F7372632F686333325F6C6CF5
:101830005F66636D2E630000008404400146002053
:1018400009B9C01E0CE000220A804A804A608A6002
:10185000CA600A614A6180228A610022CA610A6202
:10186000704700002DE9F04104460D46904600BF48
:101870002548008800F0010000B104E040F2AA21F0
:1018800022A0FFF799FB00BF00BF4CB1012C07D08D
:10189000022C05D0032C03D0042C01D0052C00D140
:1018A00004E040F2AB2119A0FFF786FB00BF00BFA8
:1018B00015B1A8B200B104E04FF42B7113A0FFF7EB
:1018C0007BFB00BF002719E005F0010088B10E483E
:1018D000001D00EB841000EB8706B8F1010F04D166
:1018E000308840F40040308003E03088C0F30E00C0
:1018F00030806D1005B903E0781CC7B2102FE3D318
:1019000000BFBDE8F0810000FC3B05402E2E2F2ECD
:101910002E2F2E2E2F2E2E2F2E2E2F2E2E2F647268
:1019200069766572732F686333325F6C6C5F6472C3
:10193000697665722F7372632F686333325F6C6CE4
:101940005F6770696F2E63002DE9F05F05460E46F4
:1019500014464FF0000B14B96FF0020B0EE100BFFC
:101960008848008800F0010000B104E04FF489715C
:1019700085A0FFF721FB00BF00BF4DB1012D07D0AF
:10198000022D05D0032D03D0042D01D0052D00D14B
:1019900004E040F213117CA0FFF70EFB00BF00BF74
:1019A00016B1B0B200B104E04FF48A7176A0FFF72F
:1019B00003FB00BF00BF208810B12088012800D1A0
:1019C00004E040F2151170A0FFF7F6FA00BF00BF67
:1019D000608810B16088022800D104E04FF48B7158
:1019E00069A0FFF7E9FA00BF00BFA08810B1A08886
:1019F000042800D104E040F2171163A0FFF7DCFADD
:101A000000BF00BFE08828B1E088102802D0E0883D
:101A1000202800D104E04FF48C715BA0FFF7CCFAD2
:101A200000BF00BF208918B12089B0F5804F00D1D8
:101A300004E040F2191154A0FFF7BEFA00BF00BF46
:101A4000608910B16089402800D104E04FF48D71A5
:101A50004DA0FFF7B1FA00BF00BFA08910B1A08967
:101A6000802800D104E040F21B1147A0FFF7A4FA40
:101A700000BF00BFE08918B1E089B0F5005F00D178
:101A800004E04FF48E7140A0FFF796FA00BF00BF4C
:101A9000208A18B1208AB0F5007F00D104E040F21E
:101AA0001D1139A0FFF788FA00BF00BF608A18B186
:101AB000608AB0F5805F00D104E04FF48F7132A0EE
:101AC000FFF77AFA00BF00BFA08A18B1A08AB0F56C
:101AD000806F00D104E040F21F112BA0FFF76CFAD9
:101AE00000BF00BFE08A18B1E08AB0F5004F00D116
:101AF00004E04FF4907124A0FFF75EFA00BF0027C6
:101B000039E006F0010088B3208861880843A18885
:101B10000843E188084361890843218A0843618AB0
:101B20000843218940EA010945F27728E08A40EA22
:101B3000090948F40048A089E189084340EA0909F5
:101B400048F40258A08A40EA090948F480680D4820
:101B5000001D00EB851000EB870ABAF8000020EAB0
:101B6000080009EA08010843AAF80000761006B93F
:101B700003E0781CC7B2102FC3D300BF5846BDE89E
:101B8000F09F0000FC3B05402E2E2F2E2E2F2E2ED8
:101B90002F2E2E2F2E2E2F2E2E2F647269766572E9
:101BA000732F686333325F6C6C5F64726976657241
:101BB0002F7372632F686333325F6C6C5F67706979
:101BC0006F2E630070B504460D4600BF4CB1012C6A
:101BD00007D0022C05D0032C03D0042C01D0052CF7
:101BE00000D104E040F227210CA0FFF7E5F900BF87
:101BF00000BF15B1A8B200B104E04FF40A7107A00C
:101C0000FFF7DAF900BF144901EB0410B0F800083F
:101C1000284008B1012070BD0020FCE72E2E2F2E99
:101C20002E2F2E2E2F2E2E2F2E2E2F2E2E2F647255
:101C300069766572732F686333325F6C6C5F6472B0
:101C4000697665722F7372632F686333325F6C6CD1
:101C50005F6770696F2E63000030054070B5044601
:101C60000D4600BF4CB1012C07D0022C05D0032C2F
:101C700003D0042C01D0052C00D104E040F27321E4
:101C80000BA0FFF799F900BF00BF15B1A8B200B1D2
:101C900004E04FF41D7106A0FFF78EF900BF134852
:101CA000102101FB040630882843308070BD0000FD
:101CB0002E2E2F2E2E2F2E2E2F2E2E2F2E2E2F2E3F
:101CC0002E2F647269766572732F686333325F6C8E
:101CD0006C5F6472697665722F7372632F68633309
:101CE000325F6C6C5F6770696F2E63000A38054065
:101CF0002DE9F04104460E46154600BF4CB1012CBB
:101D000007D0022C05D0032C03D0042C01D0052CC5
:101D100000D104E040F2971128A0FFF74DF900BF71
:101D200000BF16B1B0B200B104E04FF4CC7123A0F3
:101D3000FFF742F900BF00BF082D0BD90B2D01D3CF
:101D40000F2D07D9152D01D3162D03D9202D02D320
:101D5000392D00D804E040F2991118A0FFF72CF9B2
:101D600000BF00BF2448008800F0010000B104E07B
:101D70004FF4CD7111A0FFF71FF900BF002717E046
:101D800006F0010078B11C48801D00EB841000EBC8
:101D90008708B8F800004FF6C071084005F03F0111
:101DA0000843A8F80000761006B903E0781CC7B213
:101DB000102FE5D300BFBDE8F08100002E2E2F2E9E
:101DC0002E2F2E2E2F2E2E2F2E2E2F2E2E2F6472B4
:101DD00069766572732F686333325F6C6C5F64720F
:101DE000697665722F7372632F686333325F6C6C30
:101DF0005F6770696F2E6300FC3B054070B5044659
:101E00000D4600BF4CB1012C07D0022C05D0032C8D
:101E100003D0042C01D0052C00D104E040F2612154
:101E20000BA0FFF7C9F800BF00BF15B1A8B200B101
:101E300004E040F2622106A0FFF7BEF800BF13489D
:101E4000102101FB040630882843308070BD00005B
:101E50002E2E2F2E2E2F2E2E2F2E2E2F2E2E2F2E9D
:101E60002E2F647269766572732F686333325F6CEC
:101E70006C5F6472697665722F7372632F68633367
:101E8000325F6C6C5F6770696F2E630008380540C5
:101E90000146002009B9C01E0CE000220A804A80D9
:101EA000CA80CA828A81CA810A814A810A824A8298
:101EB0008A808A827047000070B504460D4600BFD4
:101EC0001048844202D01048844200D104E04FF40C
:101ED0005D710EA0FFF770F800BF00BF15B1B5F53A
:101EE000806F00D104E040F2753108A0FFF764F87C
:101EF00000BF206820F4806005F480610843206002
:101F000070BD000000B4034000B803402E2E2F2EF9
:101F10002E2F2E2E2F2E2E2F2E2E2F2E2E2F647262
:101F200069766572732F686333325F6C6C5F6472BD
:101F3000697665722F7372632F686333325F6C6CDE
:101F40005F6932632E6300002DE9F04F8DB00546C6
:101F50000C4616464FF0000A00200A900220099015
:101F60000020059004B116B96FF0020AE0E000BF4E
:101F70007448854202D07448854200D104E040F2A2
:101F80000D1172A0FFF718F800BF00BF606820B104
:101F90007D496068884200D804E04FF487716BA0E7
:101FA000FFF70AF800BF00BF2068072800D804E048
:101FB00040F20F1165A0FEF7FFFF00BF7348006AF3
:101FC00000F007017248006820FA01F8217801202A
:101FD00000FA01F7A0680C9060680B90286B00F085
:101FE000100020B1286B00F00300401C0A9020680C
:101FF00008B903200990002F7ED03846FEF7DCF99F
:1020000004900B98FEF7D8F903904046FEF7D4F9F8
:1020100002900399FEF756FA83460499FEF752FAA6
:1020200081460C98FEF7C8F904900A98FEF7C4F9A7
:102030004FF080410190FEF713FA02900998FEF7E5
:10204000BBF94FF080410190FEF70AFA83460299EE
:10205000FEF75AF903900499FEF756F9079048469F
:102060000799FEF7A3F906904846FEF7AAF90390F0
:10207000FEF7A2F949460490FEF79BF983464FF01C
:102080007C51FEF75DFA0CD84846FEF79AF90490A9
:10209000FEF792F983464FF07E51FEF735F98146FF
:1020A00006E04846FEF78DF98346FEF785F981463E
:1020B00048460799FEF79AF902D86FF0020A37E00E
:1020C00034490698FEF73CFA02D26FF0020A2FE07C
:1020D0004846FEF776F9B8FBF0F0B0FBF7F0089051
:1020E0000898FEF769F904900898FEF765F90390DF
:1020F0000B98FEF761F900E018E002900399FEF7F3
:1021000055F983460499FEF7DDF905900698FEF728
:1021100058F94008218840EA014B0698FEF751F92A
:10212000A0EB50004BEA0020E86201E06FF0020AE9
:1021300026B1BAF1000F01D10598306050460DB0BC
:10214000BDE8F08F00B4034000B803402E2E2F2EC0
:102150002E2F2E2E2F2E2E2F2E2E2F2E2E2F647220
:1021600069766572732F686333325F6C6C5F64727B
:10217000697665722F7372632F686333325F6C6C9C
:102180005F6932632E630000801A0600004005403C
:102190000080FF1F0000FF4370B504460D4600BFDE
:1021A0001148844202D01148844200D104E040F238
:1021B00026210FA0FEF700FF00BF00BF0DB1012DCB
:1021C00000D104E040F2272109A0FEF7F5FE00BF90
:1021D000012D04D1E06840F48060E06003E0E06835
:1021E00020F48060E06070BD00B4034000B803409C
:1021F0002E2E2F2E2E2F2E2E2F2E2E2F2E2E2F2EFA
:102200002E2F647269766572732F686333325F6C48
:102210006C5F6472697665722F7372632F686333C3
:10222000325F6C6C5F6932632E63000070B50446E8
:102230000D4600BF0E48844202D00E48844200D1B1
:1022400004E040F2B1210CA0FEF7B6FE00BF00BFD3
:102250002DB1184828431749884200D104E040F2C4
:10226000B22105A0FEF7A8FE00BF256270BD0000E8
:1022700000B4034000B803402E2E2F2E2E2F2E2EFA
:102280002F2E2E2F2E2E2F2E2E2F647269766572F2
:10229000732F686333325F6C6C5F6472697665724A
:1022A0002F7372632F686333325F6C6C5F693263C4
:1022B0002E6300005F56F00070B504460D4600BF67
:1022C0000E48844202D00E48844200D104E040F21D
:1022D00003210CA0FEF770FE00BF00BF0DB1012D61
:1022E00000D104E04FF4017106A0FEF765FE00BFC7
:1022F000206865F30000206070BD000000B403405A
:1023000000B803402E2E2F2E2E2F2E2E2F2E2E2FA6
:102310002E2E2F2E2E2F647269766572732F6863AE
:1023200033325F6C6C5F6472697665722F737263AF
:102330002F686333325F6C6C5F6932632E63000019
:1023400010B5044600BF0B48844202D00A488442BC
:1023500000D104E04FF4AA7108A0FEF72DFE00BFE3
:10236000206820F001002060206840F400402060D8
:10237000002010BD00B4034000B803402E2E2F2EC5
:102380002E2F2E2E2F2E2E2F2E2E2F2E2E2F6472EE
:1023900069766572732F686333325F6C6C5F647249
:1023A000697665722F7372632F686333325F6C6C6A
:1023B0005F6932632E63000010B5044600BF084811
:1023C000844202D00748844200D103E0D02106A015
:1023D000FEF7F2FD00BF206840F08000206010BDD5
:1023E00000B4034000B803402E2E2F2E2E2F2E2E89
:1023F0002F2E2E2F2E2E2F2E2E2F64726976657281
:10240000732F686333325F6C6C5F647269766572D8
:102410002F7372632F686333325F6C6C5F69326352
:102420002E63000010B5044600BF0848844202D065
:102430000748844200D103E0C32106A0FEF7BCFD9B
:1024400000BF206840F48070206010BD00B40340DD
:1024500000B803402E2E2F2E2E2F2E2E2F2E2E2F55
:102460002E2E2F2E2E2F647269766572732F68635D
:1024700033325F6C6C5F6472697665722F7372635E
:102480002F686333325F6C6C5F6932632E630000C8
:1024900010B5044600BF0848844202D00748844271
:1024A00000D103E0DD2106A0FEF786FD00BF206815
:1024B00040F40070206010BD00B4034000B8034039
:1024C0002E2E2F2E2E2F2E2E2F2E2E2F2E2E2F2E27
:1024D0002E2F647269766572732F686333325F6C76
:1024E0006C5F6472697665722F7372632F686333F1
:1024F000325F6C6C5F6932632E63000070B5044616
:102500000D4600BF1048844202D01048844200D1DA
:1025100004E04FF428710EA0FEF74EFD00BF00BF8F
:102520002DB11A4828431949884200D104E040F2ED
:10253000A12107A0FEF740FD00BFE069284008B1D7
:10254000012070BD0020FCE700B4034000B8034048
:102550002E2E2F2E2E2F2E2E2F2E2E2F2E2E2F2E96
:102560002E2F647269766572732F686333325F6CE5
:102570006C5F6472697665722F7372632F68633360
:10258000325F6C6C5F6932632E630000DF56F78F39
:102590002DE9F04104460D46174615B96FF00206C5
:1025A00048E000BF2548844202D02548844200D13B
:1025B00004E04FF4BF7123A0FEF7FEFC00BF00BF94
:1025C000686820B12E496868884200D804E040F26B
:1025D0007F111CA0FEF7F0FC00BF00BF2868072891
:1025E00000D804E04FF4C07116A0FEF7E5FC00BF70
:1025F000206820F001002060206840F40040206046
:10260000206840F0010020603A4629462046FFF746
:102610009BFC0646206820F040002060206820F4E3
:1026200000402060206820F001002060206920F434
:10263000805020613046BDE8F081000000B40340C6
:1026400000B803402E2E2F2E2E2F2E2E2F2E2E2F63
:102650002E2E2F2E2E2F647269766572732F68636B
:1026600033325F6C6C5F6472697665722F7372636C
:102670002F686333325F6C6C5F6932632E630000D6
:10268000801A06002DE9F04706460F461546994682
:102690004FF0000800BF3048864202D02F488642E3
:1026A00000D104E040F2F4412DA0FEF785FC00BF0C
:1026B000002F4CD0B06800F0800A00243FE04B4669
:1026C00001224021304600F0B1FA8046BAF1000FF5
:1026D0000AD1022D15D3A81EA04212D14FF4806159
:1026E0003046FFF7E9FB0CE0681EA04204D0002151
:1026F0003046FFF7E1FB04E04FF480613046FFF71E
:10270000DBFBB8F1000F18D1681EA04206D11021E2
:102710003046FFF78BFD3046FFF7BAFE304600F03B
:102720003DF83855681EA04208D14B4601221021C1
:10273000304600F07BFA804600E002E0641CAC42C8
:10274000BDD300BF00213046FFF7B6FB01E06FF0BC
:1027500002084046BDE8F08700B4034000B80340DB
:102760002E2E2F2E2E2F2E2E2F2E2E2F2E2E2F2E84
:102770002E2F647269766572732F686333325F6CD3
:102780006C5F6472697665722F7372632F6863334E
:10279000325F6C6C5F6932632E63000010B50446D3
:1027A00000BF0848844202D00748844200D104E0B8
:1027B00040F2653105A0FEF7FFFB00BF94F828004A
:1027C00010BD000000B4034000B803402E2E2F2E91
:1027D0002E2F2E2E2F2E2E2F2E2E2F2E2E2F64729A
:1027E00069766572732F686333325F6C6C5F6472F5
:1027F000697665722F7372632F686333325F6C6C16
:102800005F6932632E63000070B504460E4600BF58
:102810001248844202D01248844200D104E040F2BF
:10282000FD3110A0FEF7C8FB00BF33460122510462
:10283000204600F0FBF905466DB901212046FFF75F
:10284000F5FC2046FFF7B8FD334601221449204627
:1028500000F0ECF90546284670BD000000B40340C6
:1028600000B803402E2E2F2E2E2F2E2E2F2E2E2F41
:102870002E2E2F2E2E2F647269766572732F686349
:1028800033325F6C6C5F6472697665722F7372634A
:102890002F686333325F6C6C5F6932632E630000B4
:1028A0000100020070B504460D4600BF0E48844288
:1028B00002D00E48844200D104E040F231310CA035
:1028C000FEF77AFB00BF00BF0DB1012D00D104E07F
:1028D00040F2323106A0FEF76FFB00BF206865F3BF
:1028E000CF30206070BD000000B4034000B803404A
:1028F0002E2E2F2E2E2F2E2E2F2E2E2F2E2E2F2EF3
:102900002E2F647269766572732F686333325F6C41
:102910006C5F6472697665722F7372632F686333BC
:10292000325F6C6C5F6932632E63000070B50446E1
:102930000E4600BF1048844202D01048844200D1A5
:1029400004E040F2E1310EA0FEF736FB00BF334653
:1029500000224FF40031204600F068F905464DB9D9
:102960002046FFF75FFD334601221449204600F060
:102970005DF90546284670BD00B4034000B8034029
:102980002E2E2F2E2E2F2E2E2F2E2E2F2E2E2F2E62
:102990002E2F647269766572732F686333325F6CB1
:1029A0006C5F6472697665722F7372632F6863332C
:1029B000325F6C6C5F6932632E63000001000200BD
:1029C00070B505460C4600BF1348854202D0134837
:1029D000854200D104E040F22F5111A0FEF7ECFA3D
:1029E00000BF04E010212846FFF720FC641E1021E0
:1029F0002846FFF783FD012801D1002CF2D128469B
:102A0000FFF746FD234601221021284600F00EF96B
:102A10000646304670BD000000B4034000B80340D5
:102A20002E2E2F2E2E2F2E2E2F2E2E2F2E2E2F2EC1
:102A30002E2F647269766572732F686333325F6C10
:102A40006C5F6472697665722F7372632F6863338B
:102A5000325F6C6C5F6932632E63000001460020B8
:102A600009B9C01E05E04CF250324A6000228A606B
:102A70000A6070472DE9F04106460F461446984615
:102A800000BF2648864202D02548864200D104E095
:102A900040F21E4123A0FEF78FFA00BF00BF0CB129
:102AA000012C00D104E040F21F411EA0FEF784FA81
:102AB00000BF00BF7F2F00D804E04FF4846119A04D
:102AC000FEF77AFA00BF434601228021304600F02B
:102AD000ADF80546FDB9780644EA1061304600F0CD
:102AE0000FF93CB9434601220821304600F09EF818
:102AF000054607E0434600224FF48021304600F0AF
:102B000095F805463DB94FF480513046FFF7F6FC85
:102B1000012800D1851E2846BDE8F08100B403409D
:102B200000B803402E2E2F2E2E2F2E2E2F2E2E2F7E
:102B30002E2E2F2E2E2F647269766572732F686386
:102B400033325F6C6C5F6472697665722F73726387
:102B50002F686333325F6C6C5F6932632E630000F1
:102B60002DE9F84304460D461746984600260020F6
:102B7000009000BF1C48844202D01C48844200D10F
:102B800004E040F292411AA0FEF716FA00BF2DB3FE
:102B90001EE0434601228021204600F047F8064609
:102BA000B6B90098295C204600F0AAF843460122F5
:102BB0000821204600F03AF806464FF4805120469E
:102BC000FFF79CFC012800D107E00098401C009012
:102BD0000098B84201D0002EDBD001E06FF0020671
:102BE0003046BDE8F883000000B4034000B803405D
:102BF0002E2E2F2E2E2F2E2E2F2E2E2F2E2E2F2EF0
:102C00002E2F647269766572732F686333325F6C3E
:102C10006C5F6472697665722F7372632F686333B9
:102C2000325F6C6C5F6932632E6300002DE9F04700
:102C300006460C4615461F466FF0070900BF1E48A2
:102C4000864202D01D48864200D103E0A7211CA085
:102C5000FEF7B2F900BF00BF2CB128482043274936
:102C6000884200D103E0A82115A0FEF7A5F900BF16
:102C700000BF0DB1012D00D103E0A92110A0FEF786
:102C80009BF900BF00BFF06900EA0408012D01D1E3
:102C9000444503D025B9B8F1000F01D14FF0000928
:102CA000B9F1000F00D007B901E07F1EEBE700BFCC
:102CB0004846BDE8F087000000B4034000B8034078
:102CC0002E2E2F2E2E2F2E2E2F2E2E2F2E2E2F2E1F
:102CD0002E2F647269766572732F686333325F6C6E
:102CE0006C5F6472697665722F7372632F686333E9
:102CF000325F6C6C5F6932632E630000DF56F78FC2
:102D000070B504460D4600BF0748844202D007480C
:102D1000844200D104E040F2573105A0FEF74CF99F
:102D200000BF84F8245070BD00B4034000B80340D5
:102D30002E2E2F2E2E2F2E2E2F2E2E2F2E2E2F2EAE
:102D40002E2F647269766572732F686333325F6CFD
:102D50006C5F6472697665722F7372632F68633378
:102D6000325F6C6C5F6932632E63000070B504469D
:102D700000260CB9F61E35E000BF2088B0F5007FB4
:102D800000DA03E0BF211848FEF716F900BFB4F9D6
:102D900002000F2802DD6FF0020623E0608813496D
:102DA000042212FB00152868C0F3080040F2FF114E
:102DB000884208D120882860B4F902100C4A606863
:102DC00042F821000EE020882968C1F308018842FA
:102DD00006D1B4F90210064A606842F8210001E009
:102DE0006FF00106304670BD903A00005C1005405F
:102DF0000C80FF1F10B5034908688047BFF34F8F51
:102E000010BD00000C80FF1F10B5034948688047C3
:102E1000BFF34F8F10BD00000C80FF1F10B503499A
:102E200088688047BFF34F8F10BD00000C80FF1FE4
:102E300010B50349C8688047BFF34F8F10BD00002D
:102E40000C80FF1F10B5034908698047BFF34F8FFF
:102E500010BD00000C80FF1F10B503494869804772
:102E6000BFF34F8F10BD00000C80FF1F10B503494A
:102E700088698047BFF34F8F10BD00000C80FF1F93
:102E800010B50349C8698047BFF34F8F10BD0000DC
:102E90000C80FF1F10B50349086A8047BFF34F8FAE
:102EA00010BD00000C80FF1F10B50349486A804721
:102EB000BFF34F8F10BD00000C80FF1F10B50349FA
:102EC000886A8047BFF34F8F10BD00000C80FF1F42
:102ED00010B50349C86A8047BFF34F8F10BD00008B
:102EE0000C80FF1F10B50349086B8047BFF34F8F5D
:102EF00010BD00000C80FF1F10B50349486B8047D0
:102F0000BFF34F8F10BD00000C80FF1F10B50349A9
:102F1000886B8047BFF34F8F10BD00000C80FF1FF0
:102F200010B50349C86B8047BFF34F8F10BD000039
:102F30000C80FF1F10B5044600BF0CB1012C00D15E
:102F400003E0982103A0FEF737F800BF11480460A2
:102F500010BD00002E2E2F2E2E2F2E2E2F2E2E2F78
:102F60002E2E2F2E2E2F647269766572732F686352
:102F700033325F6C6C5F6472697665722F73726353
:102F80002F686333325F6C6C5F6B65797363616E5E
:102F90002E630000040C054070B5044600250CB9F2
:102FA000ED1ED5E000BF2068D8B12068B0F1005F09
:102FB00017D02068B0F1804F13D02068B0F1C04F17
:102FC0000FD02068B0F1004F0BD02068B0F1204F37
:102FD00007D02068B0F1404F03D02068B0F1604FB7
:102FE00000D103E0C7215BA0FDF7E6FF00BF00BFF3
:102FF0006068B0F1007F57D06068B0F1407F53D077
:103000006068B0F1806F4FD06068B0F1A06F4BD0B6
:103010006068B0F1C06F47D06068B0F1E06F43D036
:103020006068B0F1006F3FD06068B0F1106F3BD0C6
:103030006068B0F1206F37D06068B0F1306F33D086
:103040006068B0F1406F2FD06068B0F1506F2BD046
:103050006068B0F1606F27D06068B0F1706F23D006
:103060006068B0F1805F1FD06068B0F1885F1BD0EE
:103070006068B0F1905F17D06068B0F1985F13D0CE
:103080006068B0F1A05F0FD06068B0F1A85F0BD0AE
:103090006068B0F1B05F07D06068B0F1B85F03D08E
:1030A0006068B0F1C05F00D103E0C82129A0FDF73E
:1030B00083FF00BF00BFA06838B1A068B0F5801FD3
:1030C00003D0A068B0F5001F00D103E0C92121A002
:1030D000FDF772FF00BF00BFE068B0F5803F17D07A
:1030E000E068B0F5003F13D0E068B0F5403F0FD086
:1030F000E068B0F5802F0BD0E068B0F5A02F07D0C6
:10310000E068B0F5C02F03D0E068B0F5E02F00D143
:1031100003E0CA210FA0FDF74FFF00BF00BF2069E9
:1031200030B14FF6FF7120690843884200D103E0B7
:10313000CB2108A0FDF740FF00BFD4E90001084300
:10314000A1680843E1680843216908431149086000
:10315000284670BD2E2E2F2E2E2F2E2E2F2E2E2FA8
:103160002E2E2F2E2E2F647269766572732F686350
:1031700033325F6C6C5F6472697665722F73726351
:103180002F686333325F6C6C5F6B65797363616E5C
:103190002E630000000C05400146002009B9C01E46
:1031A0000BE000220A604FF000724A6000228A6041
:1031B0004FF48032CA6001220A61704710B504469C
:1031C00004F0010048B100BF40F223101449086028
:1031D00043F21020086000BF00BF04F0020028B1D5
:1031E00000BF10481049086100BF00BF04F0040090
:1031F00030B100BF4AF201500C49088000BF00BF47
:1032000004F0100018B14AF2085000F055F804F02C
:10321000400018B14AF2035000F04EF810BD000013
:10322000000401400100A5A500800440FC3B0540CE
:1032300010B5044604F0010028B100BF0020134976
:10324000086000BF00BF04F0020028B100BF1048B2
:103250001049086100BF00BF04F0040030B100BF96
:103260004FF425400C49088000BF00BF04F0100057
:1032700018B14AF2085000F011F804F0400018B1FB
:103280004AF2035000F00AF810BD000000040140AB
:103290000000A5A500800440FC3B054004490988C6
:1032A000814341F42541034AA2F8FE137047000010
:1032B000FE43054000400540034909880143034A95
:1032C000A2F8FE1370470000FE4305400040054091
:1032D00070B5294D2D6805F001051DB1274D284E0B
:1032E000356002E0274D264E3560274D2D7805F0DC
:1032F000070006283CD2DFE800F003080C11151A7D
:103300001F4D2D68214E356033E0214D1F4E356035
:103310002FE04FF400451D4E35602AE01C4D1B4E3A
:10332000356026E04FF40045184E356021E0164D1B
:10333000DA352D68C5F30722134D263DD5F8005127
:103340002B0F114DDA352D6805F00304114DED6991
:103350000DB90F4901E00A4D2968651CB1FBF5F56F
:10336000561C75435E1CB5FBF6F5084E356000E053
:1033700000BF00BF70BD0000840601400024F400BF
:103380000480FF1F002D3101264005400080FF1FF3
:1033900000127A000020A84200B5FFF799FF002034
:1033A0000149086000BD000008ED00E02DE9F84388
:1033B00004460E4615461F464FF000081CB1A06893
:1033C00008B1606810B96FF002081BE0B01DC0B210
:1033D0008DF8000001220DF101016846A3689847AD
:1033E0002FB99DF80100A8438DF8010004E09DF875
:1033F000010028438DF8010001220DF1010168460A
:10340000636898474046BDE8F88338B50446002510
:103410002CB1E06818B1206808B1606810B96FF08D
:10342000020518E0E068804720688047FF208DF89B
:10343000010006208DF8000001220DF1010168460F
:103440006368984707208DF8000001220DF1010103
:10345000684663689847284638BDF8B504460D4667
:10346000164600271CB1A06808B1606810B96FF05B
:10347000020714E0A81CC0B28DF8000001220DF173
:1034800001016846A36898479DF8010070408DF8D7
:10349000010001220DF10101684663689847384632
:1034A000F8BD2DE9F84304460E4615461F464FF079
:1034B00000081CB1A06808B1606810B96FF002087C
:1034C0001BE0B01CC0B28DF8000001220DF101011B
:1034D0006846A36898472FB99DF80100A8438DF866
:1034E000010004E09DF8010028438DF8010001224D
:1034F0000DF101016846636898474046BDE8F883CE
:1035000070B504460D4600BF0F48844202D00F48F4
:10351000844200D104E040F25A210DA0FDF74CFD99
:1035200000BF00BF2DB145F00710B0F1071F00D15B
:1035300004E040F25B2106A0FDF73EFD00BF60699C
:10354000A843606170BD000000400240004402409A
:103550002E2E2F2E2E2F2E2E2F2E2E2F2E2E2F2E86
:103560002E2F647269766572732F686333325F6CD5
:103570006C5F6472697665722F7372632F68633350
:10358000325F6C6C5F746D72302E630010B520205A
:10359000FDF706FB4FF480310148FFF7B1FF10BD86
:1035A0000040024010B586B001210803FDF728FF56
:1035B00001214804FDF784FE02A800F019FA4FF437
:1035C000A0600290402003900020049040F2FF3061
:1035D000ADF8140002AA01212C4800F0BFF8012028
:1035E000FDF7ECFC01221146284800F05BF80120B1
:1035F000FDF7E4FC01229104244800F05FF901206A
:10360000FDF7DCFC06212248FCF7FEFF6120ADF847
:1036100000000620ADF802001E4801906846FFF742
:10362000A5FBBDF90200002807DB00F01F01012205
:103630008A401949430941F8232000BFBDF902001F
:103640000F21002804DB0A07130E144A135406E066
:103650000A07140E124A00F00F031B1FD45400BFB8
:10366000BDF9020000280DDB00BF00BF00F01F0203
:10367000012191404209920002F1E022C2F80011BA
:1036800000BF00BF00BF06B010BD000000400240F8
:10369000640801408D35000080E200E000E400E0B5
:1036A00018ED00E070B504460D46164600BF1A48F6
:1036B000844202D01948844200D104E040F2F7115C
:1036C00017A0FDF779FC00BF00BF0DB1012D00D19F
:1036D00004E04FF4FC7112A0FDF76EFC00BF00BFC8
:1036E0000EB1012E00D104E040F2F9110CA0FDF75B
:1036F00063FC00BF012E06D120692A0171039140AD
:103700000843206106E020692A014FF400519140EE
:103710008843206170BD0000004002400044024028
:103720002E2E2F2E2E2F2E2E2F2E2E2F2E2E2F2EB4
:103730002E2F647269766572732F686333325F6C03
:103740006C5F6472697665722F7372632F6863337E
:10375000325F6C6C5F746D72302E63002DE9F04740
:1037600006460D4614464FF0000914B96FF00209E1
:103770007FE000BF4048864202D04048864200D1E8
:1037800003E0BD213EA0FDF717FC00BF00BF0DB157
:10379000012D00D103E0BE2139A0FDF70DFC00BFD3
:1037A00000BF206858B12068B0F5007F07D02068BE
:1037B000B0F5807F03D02068B0F5A06F00D103E0A2
:1037C000BF212FA0FDF7F8FB00BF00BF6068E8B184
:1037D000606810281AD06068202817D060683028E8
:1037E00014D06068402811D0606850280ED06068FE
:1037F00060280BD06068702808D06068802805D0E9
:103800006068902802D06068A02800D103E0C02141
:103810001BA0FDF7D1FB00BF00BFA06820B148F29C
:103820000201A068884200D103E0C12114A0FDF785
:10383000C3FB00BF06EB85070020386006F10800D7
:1038400000EB8508A089C8F8000030692A0148F219
:10385000F27191408843D4E900121143A2681143E8
:103860002A0191402B0148F2F2729A40114008431C
:1038700030614846BDE8F087004002400044024005
:103880002E2E2F2E2E2F2E2E2F2E2E2F2E2E2F2E53
:103890002E2F647269766572732F686333325F6CA2
:1038A0006C5F6472697665722F7372632F6863331D
:1038B000325F6C6C5F746D72302E630070B50446BD
:1038C0000D46164600BF1748844202D0164884426F
:1038D00000D104E040F2292114A0FDF76DFB00BFE8
:1038E00000BF2DB145F00C10B0F10C1F00D104E069
:1038F00040F22A210DA0FDF75FFB00BF00BF0EB113
:10390000012E00D104E040F22B2108A0FDF754FB6A
:1039100000BF1EB120692843206102E02069A8434E
:10392000206170BD00400240004402402E2E2F2E28
:103930002E2F2E2E2F2E2E2F2E2E2F2E2E2F647228
:1039400069766572732F686333325F6C6C5F647283
:10395000697665722F7372632F686333325F6C6CA4
:103960005F746D72302E630070B504460D4600BF63
:103970000E48844202D00E48844200D103E0F22176
:103980000CA0FDF719FB00BF00BF0DB1012D00D148
:1039900003E0F32107A0FDF70FFB00BF20692A0118
:1039A000012191400843206170BD000000400240A9
:1039B000004402402E2E2F2E2E2F2E2E2F2E2E2F55
:1039C0002E2E2F2E2E2F647269766572732F6863E8
:1039D00033325F6C6C5F6472697665722F737263E9
:1039E0002F686333325F6C6C5F746D72302E6300CE
:1039F0000146002009B9C01E06E000220A604A60A4
:103A00008A604FF6FF728A81704702E008C8121F71
:103A100008C1002AFAD170477047002001E001C1B7
:103A2000121F002AFBD170474720FFF7C7FBFDF7A5
:103A30001FF9FCF785FFFDF7A7F8FCF7FDFFFFF77F
:103A4000B1FD01210548FFF78FFF0120FDF7B6FA10
:103A50000320FFF7EDFB00BFFEE70000004002403F
:103A600002004000080003000001080000000100FF
:103A70000100000010000000000002000200000031
:103A8000110000000100400040000000160000008E
:103A90002E2E2F2E2E2F2E2E2F2E2E2F2E2E2F2E41
:103AA0002E2F647269766572732F686333325F6C90
:103AB0006C5F6472697665722F7372632F6863330B
:103AC000325F6C6C5F696E74657272757074732EA0
:103AD00063000000F43A00000880FF1F04000000AB
:103AE0000A3A0000F83A00000C80FF1F540C000056
:083AF0001A3A0000000000007A
:0400000500000251A4
:00000001FF
