:020000040000FA
:10000000788CFF1F650200006D0200006F02000087
:100010007102000073020000750200000000000081
:100020000000000000000000000000007702000057
:1000300079020000000000007B0200007D02000049
:100040006D3000008130000095300000A9300000C4
:10005000BD300000D1300000E5300000F930000074
:100060000D31000021310000353100004931000020
:100070005D310000713100008531000099310000D0
:10008000AD170000051800007F0200007F0200008D
:100090007F0200007F0200005D1800007F02000068
:1000A0007F0200007F0200007F0200007F0200004C
:1000B0007F0200007F0200007F0200007F0200003C
:1000C0007F0200007F0200007F0200007F0200002C
:1000D0007F0200007F0200007F0200007F0200001C
:1000E0007F0200007F0200007F0200007F0200000C
:1000F0007F0200007F0200007F0200007F020000FC
:100100007F0200007F0200007F0200007F020000EB
:100110007F0200007F0200007F0200007F020000DB
:100120007F0200007F0200007F0200007F020000CB
:100130007F0200007F0200007F0200007F020000BB
:100140007F0200007F0200007F0200007F020000AB
:100150007F0200007F0200007F0200007F0200009B
:100160007F0200007F0200007F0200007F0200008B
:100170007F0200007F0200007F0200007F0200007B
:100180007F0200007F0200007F0200007F0200006B
:100190007F0200007F0200007F0200007F0200005B
:1001A0007F0200007F0200007F0200007F0200004B
:1001B0007F0200007F0200007F0200007F0200003B
:1001C0007F0200007F0200007F0200007F0200002B
:1001D0007F0200007F0200007F0200007F0200001B
:1001E0007F0200007F0200007F0200007F0200000B
:1001F0007F0200007F0200007F0200007F020000FB
:100200007F0200007F0200007F0200007F020000EA
:100210007F0200007F0200007F0200007F020000DA
:100220007F0200007F0200007F020000000000004B
:10023000000000007F0200007F0200007F0200003B
:100240007F0200007F0200007F0200007F020000AA
:10025000DFF80CD000F0EEFA004800470947000034
:10026000788CFF1F0648804706480047FEE7FEE7F8
:10027000FEE7FEE7FEE7FEE7FEE7FEE7FEE7FEE756
:10028000993A0000510200002DE9F05F0546002078
:1002900092469B4688460646814640241BE02846F7
:1002A00041464746224600F021FA53465A46C01AB4
:1002B000914110D311461846224600F016F82D1A27
:1002C00067EB01084F4622460120002100F00DF89F
:1002D00017EB00094E41201EA4F10104DFDC484663
:1002E00031462A464346BDE8F09F202A04DB203AE7
:1002F00000FA02F1002070479140C2F1200320FA79
:1003000003F319439040704740EA01039B0703D071
:1003100009E008C9121F08C0042AFAD203E011F844
:10032000013B00F8013B521EF9D27047F0B480EA5D
:100330000102D40F4200B2EB410F02D2024608463E
:1003400011464A0042D0C30DDDB2C1F3C752AD1A07
:10035000202D35DAC1F3160141F4000204B15242F6
:10036000C5F1200602FA06F12A411044B3EBD05F32
:1003700023D0C4B1012DA0EBC35009DCF0BC4FF079
:10038000004202EAC352DBB200F5000000F0C7B938
:10039000400000F1807000EBC350A0F1807040EA93
:1003A000D170490009E0490841EAC071A0EBC3508F
:1003B00000F50000400800EBC350F0BC00F0A6B907
:1003C0006142012202EB4101001BF6E7F0BC7047DD
:1003D00081F00041AAE780F00040A7E796230022C1
:1003E000114600F09CB90EB540F233410291002154
:1003F000CDE900110A460B4600F0CEF903B000BD6E
:10040000BFFFDFFFFFFFFFFFFFFFFFFFFFFFFFFF5C
:10041000FFFFFFFFFFFFFFFFFFFFFFFFFFFFFFFFEC
:10042000FFFFFFFFFFFFFFFFFFFFFFFFFFFFFFFFDC
:10043000FFFFFFFFFFFFFFFFFFFFFFFFFFFFFFFFCC
:10044000FFFFFFFFFFFFFFFFFFFFFFFFFFFFFFFFBC
:10045000FFFFFFFFFFFFFFFFFFFFFFFFFFFFFFFFAC
:1004600080EA010210B502F00043400022D04A00A9
:100470001FD0010E01EB1261C0F35600C2F3560209
:1004800040F4000042F40002A0FB022000047F3987
:10049000140400D0401C50EA124001D44000491E10
:1004A000C2B20C0604EBD010401C4008802A02D0D7
:1004B00003E0002010BD20F00100002900DA002038
:1004C000184310BD30B480EA010202F0004530F05C
:1004D000004221F0004013D090B1C30DD40DC2F3FF
:1004E0001601C0F31600E41A41F4000140F40002C2
:1004F0007D34914201D3641C00E04900002C02DAF3
:1005000030BC002070474FF400000023914201D31B
:10051000891A034340084FEA4101F7D151B1914292
:1005200002D14FF0004105E002D24FF0010101E09D
:100530006FF0010103EBC450284430BC00F0E6B872
:100540002DE9F04D81EA030404F0004B21F0004551
:1005500014464FF0000A23F0004150EA050220D073
:1005600054EA01021DD0C5F30A570246C5F313032E
:10057000C1F31300C1F30A5640F4801543F480130D
:10058000A7EB0608101BD64608F2FD3873EB0500F2
:1005900002D308F1010801E092185B41B8F1000FA5
:1005A00003DA00200146BDE8F08D00204FF48011F1
:1005B000064684460EE0171B73EB050705D3121B96
:1005C00063EB050306434CEA010C49084FEA30008F
:1005D00092185B4150EA0107EDD152EA030012D0B4
:1005E00082EA040083EA0501084305D0101BAB41F1
:1005F00006D20122002306E000224FF0004302E071
:100600006FF0010253101AEB06004CEB085110EB8F
:100610000A0041EB0B01BDE8F04D00F0AEB80EB59D
:1006200040F2334202920022CDE90022134600F04C
:10063000B3F803B000BD20F00040C10DC0F31600B8
:1006400040F400007F2901DA00207047962903DC7E
:10065000C1F19601C840704796398840704701F053
:10066000004330B421F0004150EA010206D00A0DE7
:10067000A2F56072C1F31301002A02DC30BC002035
:100680007047440F44EAC104C100E01830BC00EBDD
:10069000C25000F03BB80000002801DBC0F1004070
:1006A000002901DBC1F1004181427047002801DBD4
:1006B000C0F10040002901DBC1F1004188427047D0
:1006C00030B50B46014600202022012409E021FA22
:1006D00002F59D4205D303FA02F5491B04FA02F51F
:1006E0002844151EA2F10102F1DC30BD202A04DBF2
:1006F000203A21FA02F00021704721FA02F3D0409B
:10070000C2F1200291400843194670470029A8BF52
:100710007047401C490008BF20F00100704710B42A
:10072000B0FA80FC00FA0CF050EA010404BF10BCDF
:10073000704749B1CCF1200421FA04F411FA0CF10C
:1007400018BF012121430843A3EB0C01CB1D4FEA45
:1007500000614FEA102042BF002010BC704700EB40
:10076000C35010440029A4BF10BC7047401C49006E
:1007700008BF20F0010010BC704710B5141E73F1C3
:10078000000408DA401C41F1000192185B411A4351
:1007900001D120F0010010BD2DE9F04D92469B469D
:1007A00011B1B1FA81F202E0B0FA80F22032904643
:1007B000FFF79BFD04460F4640EA0A0041EA0B01A1
:1007C00053465A46084313D0114653EA010019D044
:1007D000C8F140025046FFF789FF05460E465046D5
:1007E00059464246FFF781FD084305D0012004E049
:1007F00020463946BDE8F08D0020054346EAE07604
:100800002C4337430A986305E40AA0EB0800002252
:10081000FD0A44EA47540A3002D500200146E9E7C0
:10082000010510196941DDE9084500196941BDE874
:10083000F04DA2E7064C074D06E0E06840F00103EA
:1008400094E8070098471034AC42F6D3FFF704FD54
:1008500044480000644800000EB52749274800F0CE
:100860005AFC01220321052001F022F902A800F020
:1008700085FD00208DF80A0030208DF80900002049
:100880008DF8080005208DF80B0002A800F0D8FCB8
:10089000684600F017FC00208DF8000001900198D8
:1008A00020F0030001906321019861F31020019072
:1008B000019820F0704000F140500190019820F024
:1008C000706000F140700190019820F4700000F514
:1008D00040100190019820F080000190684600F0DF
:1008E00099FA032000F002FF4FF4405001F0F6FBAC
:1008F000052000F01AFC0EBD102221007777770743
:100900002DE9F14F86B02B48006A00F007012A4814
:10091000006820FA01F62948B6FBF0F04FF40171A7
:10092000B0FBF1FB002405E00120A040584500D9B0
:1009300002E0641C072CF7D900BF069801F080FE86
:1009400002A802F00BFA1D48039022464FF001095D
:100950004FF0000A48465146FFF7C7FC07463A46A3
:100960000B4630460021FFF78FFCB4230022A0FB8A
:10097000037C01FB03C100FB0210114A0023CDE9F7
:10098000007038460199FFF77FFC0490029405AA95
:1009900002A9069801F07CFF05463DB901210698A1
:1009A00001F07AFD0121069801F006FE284607B005
:1009B000BDE8F08F004005400080FF1FA0860100C9
:1009C00000CA9A3B2DE9F0478046894615461E46E7
:1009D000DDE908A70121404602F0E4F80021404685
:1009E00002F0E0F84FF48021404602F01FF904467F
:1009F0009CBB4FF4802300224946404602F0BAF9DE
:100A0000044654BB4FF4802332462946404602F048
:100A100027FA04460CBB4FF48021404602F074F8DC
:100A20000446D4B9012F03D1B902404601F0C4FBFA
:100A30004FF4802301224946404602F09BF90446C8
:100A40003CB94FF480233A465146404601F09AFFA4
:100A500004460021404601F0AFFB24B14FF4802151
:100A6000404602F02DF92046BDE8F0872DE9F04719
:100A70000746884615461E46DDE9089A0121384694
:100A800002F090F80021384602F08CF84FF48021F3
:100A9000384602F0CBF80446CCB94FF4802300224C
:100AA0004146384602F066F9044684B94FF4802383
:100AB00032462946384602F0D3F904463CB94FF491
:100AC000802352464946384602F0CAF904464FF49C
:100AD0008021384602F0F4F82046BDE8F087000097
:100AE00070B504460D46164633462A46214602484E
:100AF00002F0DCFF70BD00006080FF1F10B50748EA
:100B00000749086007484860074888600748C86088
:100B100000200861084602F0F8FF10BD0D0C00002F
:100B20006080FF1F750C0000550C0000950C000044
:100B300070B504460D46164633462A4621460248FD
:100B400003F00BF870BD00006080FF1F704710B508
:100B50000022E0210120FFF7EBFF0022E02101202D
:100B6000FFF7BEFF10BD0000F0B595B007460D467B
:100B7000202222490CA8FFF7C7FB6FF00206002DC8
:100B800039D024224FF48061022001F0D7F90121ED
:100B9000480500F043FF01A803F096FC4FF4004025
:100BA0000890002201A9164803F080FB00241FE0F2
:100BB0000CA850F82410124803F01CFB14AA294674
:100BC0000F4803F081FA06467EB90E481499FFF7E4
:100BD00063FD0AD80C491498FFF75EFD05D8012281
:100BE0000821074803F03CF904E04FF0FF36641C8D
:100BF000082CDDD300BF304615B0F0BDE047000043
:100C000000D00140CDCCCCBCCDCCCC3C00B587B025
:100C100001A801F0BDFA01AA0221042000F0BAFFE8
:100C200001AA0121042000F0B5FF31220221042095
:100C300001F084F930220121042001F07FF9012123
:100C4000102000F057FE0248FFF75AFE07B000BD23
:100C500000B403407CB504460D46164601232246E7
:100C600074210348CDE90056FFF7ACFE7CBD0000BF
:100C700000B403407CB504460D46164601232246C7
:100C800074210348CDE90056FFF7F0FE7CBD00005B
:100C900000B4034000B587B04FF40041012001F0DB
:100CA00003F901A801F074FA0220ADF8060001AAC8
:100CB0008103012000F06EFF032000F0D7FC4FF409
:100CC0000041012001F0C0F907B000BD10B5044695
:100CD00000BF24B144F02900292800D104E040F2EB
:100CE0000B5106A000F07AFC00BF134800782040AA
:100CF00008B1012010BD0020FCE700002E2E2F2E91
:100D00002E2F2E2E2F2E2E2F2E2E2F2E2E2F647284
:100D100069766572732F686333325F6C6C5F6472DF
:100D2000697665722F7372632F686333325F6C6C00
:100D30005F636C6B2E6300003C40054070B5044659
:100D4000002500BF0CB1012C00D104E040F2C141EC
:100D50001FA000F043FC00BF00BF2C48008800F03B
:100D6000010000B104E040F2C24119A000F036FCDD
:100D700000BF64B92648007800F00700052801D1BB
:100D8000C54322E001202249091D08701DE02048CA
:100D9000DA300068C0F3C01030B94FF48051082039
:100DA00000F0CBF9054605E04FF48051012000F03A
:100DB000C4F905464DB900201549091D08704FF4C6
:100DC0008051202000F0B9F90546284670BD00008A
:100DD0002E2E2F2E2E2F2E2E2F2E2E2F2E2E2F2E2E
:100DE0002E2F647269766572732F686333325F6C7D
:100DF0006C5F6472697665722F7372632F686333F8
:100E0000325F6C6C5F636C6B2E630000FE430540C9
:100E1000264005402DE9F041044614B96FF0020662
:100E20001EE100BF2079C0F3C01018B12079C0F3D3
:100E3000C01000B104E040F294418BA000F0CEFB62
:100E400000BF00BF207900F00300401C042805D833
:100E5000207900F00300401C00B104E040F295410D
:100E600081A000F0BBFB00BF00BF6068C0F308209A
:100E7000401C962806D86068C0F30820401C19283A
:100E800000D304E040F2964177A000F0A7FB00BF3A
:100E900000BF0121606801EB1070102805D8606860
:100EA00001EB1070022800D304E040F297416EA0DD
:100EB00000F094FB00BF2079C0F3C01008B9794955
:100EC00001E079480168207900F00300401CB1FB83
:100ED000F0F76068C0F30820401C00FB07F500BF76
:100EE0007248874203D86F48874200D304E040F23B
:100EF0009C415DA000F072FB00BF00BF6C488542C2
:100F000003D84010854200D304E040F29D4156A032
:100F100000F064FB00BF00BF0121606801EB1070AE
:100F2000B5FBF0F06349884209D80121606801EB04
:100F30001070B5FBF0F06049884200D304E040F245
:100F40009E4149A000F04AFB00BF00BF6068C0F3AB
:100F50000360401C102806D86068C0F30360401C82
:100F6000022800D304E040F29F413FA000F036FB8E
:100F700000BF00BF6068C0F30350401C102806D8B3
:100F80006068C0F30350401C022800D304E04FF413
:100F9000946135A000F022FB00BF00BF6068C0F381
:100FA0000350401CB5FBF0F04249884209D8606804
:100FB000C0F30350401CB5FBF0F03F49884200D31A
:100FC00004E040F2A14128A000F008FB00BF00BFF0
:100FD0006068C0F30360401CB5FBF0F035498842FF
:100FE00009D86068C0F30360401CB5FBF0F03249DB
:100FF000884200D304E040F2A2411BA000F0EEFAC8
:1010000000BF00BF2078012801D0207800B904E09B
:1010100040F2A44114A000F0E1FA00BF00BF27484D
:10102000008800F0010000B104E040F2A5410EA0EC
:1010300000F0D4FA00BF2079C1092148006861F3AB
:10104000C7101F49086060680860207820B9012037
:10105000FFF774FE064603E00020FFF76FFE06462A
:101060003046BDE8F08100002E2E2F2E2E2F2E2E82
:101070002F2E2E2F2E2E2F2E2E2F64726976657214
:10108000732F686333325F6C6C5F6472697665726C
:101090002F7372632F686333325F6C6C5F636C6BAA
:1010A0002E63000000127A000480FF1F40787D014B
:1010B000008C864700C2EB0B60343C02FE430540C7
:1010C000004105400146002009B9C01E22E000226F
:1010D0004A604A6822F080024A604A6822F00302AD
:1010E0004A6013234A6863F310224A604A6822F078
:1010F000704202F180524A604A6822F0706202F146
:1011000080724A604A6822F4700202F580124A60D6
:1011100001220A70704770B504460D4629462046E4
:1011200002F0E4F802F054FC70BD10B5044620460D
:1011300002F07AFA02F04CFC10BDF8B505460C46F8
:10114000002000906FF0070609E02846FFF7BEFD7B
:10115000012801D1002605E00098401C009000986D
:10116000A042F2D900BF3046F8BD000070B5044679
:10117000002500BF0CB1012C00D104E04FF44D71EB
:101180001EA000F02BFA00BF00BF2B48008800F023
:10119000010000B104E040F2353118A000F01EFA61
:1011A00000BFFCB92548007800F00700032802D1F1
:1011B0006FF0050520E02148DA300068C0F3C01068
:1011C00058B91E48001D007810B96FF0050513E0EE
:1011D00001201A490C3108700EE0012017490C312A
:1011E000087009E0002015490C3108704FF4805157
:1011F0000820FFF7A2FF0546284670BD2E2E2F2E91
:101200002E2F2E2E2F2E2E2F2E2E2F2E2E2F64727F
:1012100069766572732F686333325F6C6C5F6472DA
:10122000697665722F7372632F686333325F6C6CFB
:101230005F636C6B2E630000FE4305402640054053
:1012400070B5044614B96FF0020571E000BF207854
:10125000012801D0207800B904E040F2153135A012
:1012600000F0BCF900BF00BF607840B16078102882
:1012700005D06078202802D06078302800D104E0C2
:1012800040F216312BA000F0A9F900BF00BFA078F2
:1012900010B1A078402800D104E040F2173125A019
:1012A00000F09CF900BF00BFE078012817D0E0787B
:1012B000022814D0E078032811D0E07804280ED05A
:1012C000E07805280BD0E078062808D0E0780728D9
:1012D00005D0E078082802D0E078092800D104E0A1
:1012E0004FF4467113A000F079F900BF00BF204809
:1012F000008800F0010000B104E040F219310DA0B7
:1013000000F06CF900BFE0781A490870607840F08E
:101310008000A178084318490870207820B901207E
:10132000FFF724FF054603E00020FFF71FFF0546F7
:10133000284670BD2E2E2F2E2E2F2E2E2F2E2E2FE6
:101340002E2E2F2E2E2F647269766572732F68638E
:1013500033325F6C6C5F6472697665722F7372638F
:101360002F686333325F6C6C5F636C6B2E630000BD
:10137000FE430540A240054050CC044001460020F9
:1013800009B9C01E06E001220A7000228A704A7064
:101390000522CA70704700002DE9F04F8FB08246D9
:1013A000894601200990801E089000BF754882453B
:1013B0000ED0754882450BD07448824508D07448D9
:1013C000824505D07348824502D07348824500D1DA
:1013D00004E04FF4F67171A000F000F900BFD9F8F5
:1013E0000040D9F80460002C7ED0002EFCD0B00064
:1013F000B4FBF0F0451EFF2D7CD8C9F80850B000B2
:10140000B4FBF0F100FB11400B900B9820B90020C9
:10141000C9F8100008906DE000206B1C40EB000242
:1014200004204FF0000CA3FB001E02FB00E003FBB6
:101430000C02A1FB067302FB063201FB0C284FF4E1
:1014400080710022A7FB01C308FB013107FB0210DA
:1014500052084FEA34031CEB03015041224600239B
:10146000CDE9061008460799FEF70EFF8021B0EB84
:10147000010BBBF17F0F3BD8C9F80CB0490000202D
:101480003B46A3FB01CE08FB01E107FB00186746C2
:1014900080221BEB020240EB00030021A2FB040CA4
:1014A00003FB04C302FB0131CDE90C013846414680
:1014B000FFF7B5F8CDE90201DDE90C01FFF7AFF860
:1014C000CDE90001DDE90223FFF73AF8CDE9040197
:1014D000FFF7C5F84FF07E510790FEF779FF0A90AD
:1014E0000A98C9F8100000E043E00020089001E0ED
:1014F000002009900998E0BB04EB84004000B10093
:10150000B0FBF1F0401D0A21B0FBF1F0451EFF2DAC
:1015100034D8C9F8085000206B1C404104214FF01A
:10152000000CA3FB012E00FB01E003FB0C01634652
:10153000A2FB067C01FB06C102FB031838464146AC
:10154000FFF76DF8CDE902012046FEF74CFFCDE92B
:101550000001DDE90223FEF7F3FFCDE90401FFF707
:101560007EF84FF07E510790FEF732FF0A900A98FE
:1015700000E003E0C9F810000020089008980FB0C0
:10158000BDE8F08F00CC014000D0014000D4014004
:10159000000C024000100240001402402E2E2F2E9C
:1015A0002E2F2E2E2F2E2E2F2E2E2F2E2E2F6472DC
:1015B00069766572732F686333325F6C6C5F647237
:1015C000697665722F7372632F686333325F6C6C58
:1015D0005F75736172742E630000000004460D464F
:1015E0002A46214602A002F087FF00BFFEE7000066
:1015F00057726F6E6720706172616D65746572738A
:101600002076616C75653A2066696C6520257320CB
:101610006F6E206C696E652025640D0A0000000065
:1016200038B50246002300250095D81E00BF0D4D99
:101630002D682C4600BF0C4D2D68294689B105E068
:101640000D6805F08003009D6D1C0095009DA5426E
:1016500001D8002BF4D013B18A80002001E06FF094
:10166000070038BD1480FF1F1080FF1F08B50D490B
:10167000096AC1F302630C490968D94042F2107348
:101680001944491EB1FBF3F206E0009200BF009935
:101690004B1E00930029FAD10100A0F10100F4D102
:1016A00008BD0000004005400080FF1F08B50C4940
:1016B000096AC1F302630B490968D9400A4B19440E
:1016C000491EB1FBF3F206E0009200BF00994B1EE9
:1016D00000930029FAD10100A0F10100F4D108BD66
:1016E000004005400080FF1F8096980070B50446BA
:1016F000002500BF1B480068012800D104E040F22B
:101700002F1119A0FFF76AFF00BF00BF0F2C00D8F0
:1017100004E04FF4987114A0FFF760FF00BF114878
:101720001830006864F303000E491831086010E0B7
:101730006D1C1C48006AC0F302611B480068C84069
:1017400044F62061B0FBF1F0A84202D26FF007002E
:1017500070BD04481830006800F00F00A042E7D1C7
:101760000020F5E7000401402E2E2F2E2E2F2E2EC6
:101770002F2E2E2F2E2E2F2E2E2F6472697665720D
:10178000732F686333325F6C6C5F64726976657265
:101790002F7372632F686333325F6C6C5F65666DA5
:1017A0002E630000004005400080FF1F10B500BF01
:1017B0001148006800F0070004461049486800F02E
:1017C0007BF8012814D100BF0C4A5188107800F032
:1017D0001FFB38B90120A04009490968084308499E
:1017E0000860F1E70549486800F04AF800BF00BF0B
:1017F000BFF34F8F10BD0000080C0540BC47000030
:101800001880FF1F10B500BF1148006800F00700E6
:1018100004461049086900F04FF8012815D100BFAF
:101820000C4AD189107B00F0F3FA40B94FF4807074
:10183000A04009490968084307490860F0E70549DD
:10184000086900F01DF800BF00BFBFF34F8F10BD47
:10185000080C0540BC4700001880FF1F10B5074862
:10186000006840F4803005490860402000F008F826
:10187000FFF76CF9BFF34F8F10BD00001880FF1FFA
:1018800010B5044600BF3CB14FF6FF7020434FF641
:10189000FF71884200D104E04FF4F9710448FFF76A
:1018A0009DFE00BF0348806D20430249886510BD3E
:1018B000004800000010054010B5044600BF3CB1D0
:1018C0004FF6FF7020434FF6FF71884200D104E0CD
:1018D00040F2FF110548FFF781FE00BF0448406D4C
:1018E000204008B1012010BD0020FCE700480000A6
:1018F0000010054070B504460D4600BF2CB11148DC
:1019000020431049884200D103E084210EA0FFF754
:1019100065FE00BF00BF0DB1012D00D103E08521A0
:1019200009A0FFF75BFE00BF012D05D115484068F7
:10193000A0431449486004E012484068204311491C
:10194000486070BD3B0007002E2E2F2E2E2F2E2E0E
:101950002F2E2E2F2E2E2F2E2E2F6472697665722B
:10196000732F686333325F6C6C5F64726976657283
:101970002F7372632F686333325F6C6C5F666367CB
:101980002E6300000080044070B504460D4600BF81
:101990002CB1114820431049884200D103E0962120
:1019A0000EA0FFF71BFE00BF00BF0DB1012D00D13F
:1019B00003E0972109A0FFF711FE00BF012D05D11B
:1019C00015488068A0431449886004E01248806884
:1019D00020431149886070BD03BEF0012E2E2F2ECA
:1019E0002E2F2E2E2F2E2E2F2E2E2F2E2E2F647298
:1019F00069766572732F686333325F6C6C5F6472F3
:101A0000697665722F7372632F686333325F6C6C13
:101A10005F6663672E6300000080044070B5044673
:101A20000D4600BF2CB1114820431049884200D117
:101A300003E0A8210EA0FFF7D1FD00BF00BF0DB14C
:101A4000012D00D103E0A92109A0FFF7C7FD00BFC8
:101A5000012D05D11548C068A0431449C86004E0B1
:101A60001248C06820431149C86070BD1703F103D4
:101A70002E2E2F2E2E2F2E2E2F2E2E2F2E2E2F2E81
:101A80002E2F647269766572732F686333325F6CD0
:101A90006C5F6472697665722F7372632F6863334B
:101AA000325F6C6C5F6663672E63000000800440E9
:101AB0002DE9F04104460D46904600BF25480088B8
:101AC00000F0010000B104E040F2AA2122A0FFF7DB
:101AD00085FD00BF00BF4CB1012C07D0022C05D002
:101AE000032C03D0042C01D0052C00D104E040F2DB
:101AF000AB2119A0FFF772FD00BF00BF15B1A8B25E
:101B000000B104E04FF42B7113A0FFF767FD00BF95
:101B1000002719E005F0010088B10E48001D00EB18
:101B2000841000EB8706B8F1010F04D1308840F42F
:101B30000040308003E03088C0F30E0030806D102C
:101B400005B903E0781CC7B2102FE3D300BFBDE88E
:101B5000F0810000FC3B05402E2E2F2E2E2F2E2E26
:101B60002F2E2E2F2E2E2F2E2E2F64726976657219
:101B7000732F686333325F6C6C5F64726976657271
:101B80002F7372632F686333325F6C6C5F677069A9
:101B90006F2E63002DE9F05F05460E4614464FF0A8
:101BA000000B14B96FF0020B0EE100BF88480088EB
:101BB00000F0010000B104E04FF4897185A0FFF747
:101BC0000DFD00BF00BF4DB1012D07D0022D05D086
:101BD000032D03D0042D01D0052D00D104E040F2E7
:101BE00013117CA0FFF7FAFC00BF00BF16B1B0B222
:101BF00000B104E04FF48A7176A0FFF7EFFC00BF5C
:101C000000BF208810B12088012800D104E040F2F4
:101C1000151170A0FFF7E2FC00BF00BF608810B193
:101C20006088022800D104E04FF48B7169A0FFF7AF
:101C3000D5FC00BF00BFA08810B1A088042800D147
:101C400004E040F2171163A0FFF7C8FC00BF00BF1B
:101C5000E08828B1E088102802D0E088202800D150
:101C600004E04FF48C715BA0FFF7B8FC00BF00BF2D
:101C7000208918B12089B0F5804F00D104E040F2EE
:101C8000191154A0FFF7AAFC00BF00BF608910B172
:101C90006089402800D104E04FF48D714DA0FFF71A
:101CA0009DFC00BF00BFA08910B1A089802800D191
:101CB00004E040F21B1147A0FFF790FC00BF00BFFB
:101CC000E08918B1E089B0F5005F00D104E04FF47D
:101CD0008E7140A0FFF782FC00BF00BF208A18B1C0
:101CE000208AB0F5007F00D104E040F21D1139A038
:101CF000FFF774FC00BF00BF608A18B1608AB0F5BE
:101D0000805F00D104E04FF48F7132A0FFF766FCD2
:101D100000BF00BFA08A18B1A08AB0F5806F00D1C3
:101D200004E040F21F112BA0FFF758FC00BF00BFDA
:101D3000E08A18B1E08AB0F5004F00D104E04FF41A
:101D4000907124A0FFF74AFC00BF002739E006F09D
:101D5000010088B3208861880843A1880843E1888E
:101D6000084361890843218A0843618A084321891D
:101D700040EA010945F27728E08A40EA090948F477
:101D80000048A089E189084340EA090948F402585B
:101D9000A08A40EA090948F480680D48001D00EB5C
:101DA000851000EB870ABAF8000020EA080009EA6B
:101DB00008010843AAF80000761006B903E0781C71
:101DC000C7B2102FC3D300BF5846BDE8F09F000034
:101DD000FC3B05402E2E2F2E2E2F2E2E2F2E2E2F5B
:101DE0002E2E2F2E2E2F647269766572732F6863E4
:101DF00033325F6C6C5F6472697665722F737263E5
:101E00002F686333325F6C6C5F6770696F2E63009D
:101E100070B504460D4600BF4CB1012C07D0022C12
:101E200005D0032C03D0042C01D0052C00D104E0F4
:101E300040F227210CA0FFF7D1FB00BF00BF15B176
:101E4000A8B200B104E04FF40A7107A0FFF7C6FB87
:101E500000BF144901EB0410B0F80008284008B195
:101E6000012070BD0020FCE72E2E2F2E2E2F2E2EAF
:101E70002F2E2E2F2E2E2F2E2E2F64726976657206
:101E8000732F686333325F6C6C5F6472697665725E
:101E90002F7372632F686333325F6C6C5F67706996
:101EA0006F2E63000030054070B504460D4600BF3C
:101EB0004CB1012C07D0022C05D0032C03D0042CEC
:101EC00001D0052C00D104E040F273210BA0FFF7F4
:101ED00085FB00BF00BF15B1A8B200B104E04FF40C
:101EE0001D7106A0FFF77AFB00BF1348102101FB0C
:101EF000040630882843308070BD00002E2E2F2E1F
:101F00002E2F2E2E2F2E2E2F2E2E2F2E2E2F647272
:101F100069766572732F686333325F6C6C5F6472CD
:101F2000697665722F7372632F686333325F6C6CEE
:101F30005F6770696F2E63000A3805402DE9F04134
:101F400004460E46154600BF4CB1012C07D0022CAA
:101F500005D0032C03D0042C01D0052C00D104E0C3
:101F600040F2971128A0FFF739FB00BF00BF16B160
:101F7000B0B200B104E04FF4CC7123A0FFF72EFB08
:101F800000BF00BF082D0BD90B2D01D30F2D07D992
:101F9000152D01D3162D03D9202D02D3392D00D8AC
:101FA00004E040F2991118A0FFF718FB00BF00BF32
:101FB0002448008800F0010000B104E04FF4CD7126
:101FC00011A0FFF70BFB00BF002717E006F0010090
:101FD00078B11C48801D00EB841000EB8708B8F82E
:101FE00000004FF6C071084005F03F010843A8F813
:101FF0000000761006B903E0781CC7B2102FE5D3B5
:1020000000BFBDE8F08100002E2E2F2E2E2F2E2E89
:102010002F2E2E2F2E2E2F2E2E2F64726976657264
:10202000732F686333325F6C6C5F647269766572BC
:102030002F7372632F686333325F6C6C5F677069F4
:102040006F2E6300FC3B054070B504460D4600BF93
:102050004CB1012C07D0022C05D0032C03D0042C4A
:1020600001D0052C00D104E040F261210BA0FFF764
:10207000B5FA00BF00BF15B1A8B200B104E040F24C
:10208000622106A0FFF7AAFA00BF1348102101FB46
:10209000040630882843308070BD00002E2E2F2E7D
:1020A0002E2F2E2E2F2E2E2F2E2E2F2E2E2F6472D1
:1020B00069766572732F686333325F6C6C5F64722C
:1020C000697665722F7372632F686333325F6C6C4D
:1020D0005F6770696F2E63000838054010B50446CD
:1020E00000BFA4B1B4F5805F11D0B4F5005F0ED08D
:1020F000B4F5405F0BD0B4F5804F08D0B4F5A04FD5
:1021000005D0B4F5C04F02D0B4F5E04F00D104E0E3
:1021100040F2F5110EA0FFF761FA00BF00BF1B48A7
:10212000008800F0010000B104E04FF4FB7108A04A
:10213000FFF754FA00BF1548001F008848F6FF71EA
:10214000084004F4E04108431049091F088010BD0D
:102150002E2E2F2E2E2F2E2E2F2E2E2F2E2E2F2E9A
:102160002E2F647269766572732F686333325F6CE9
:102170006C5F6472697665722F7372632F68633364
:10218000325F6C6C5F6770696F2E6300FC3B0540CB
:102190000146002009B9C01E0CE000220A804A80D6
:1021A000CA80CA828A81CA810A814A810A824A8295
:1021B0008A808A827047000070B504460D4600BFD1
:1021C0001048844202D01048844200D104E04FF409
:1021D0005D710EA0FFF702FA00BF00BF15B1B5F5A3
:1021E000806F00D104E040F2753108A0FFF7F6F9E6
:1021F00000BF206820F4806005F4806108432060FF
:1022000070BD000000B4034000B803402E2E2F2EF6
:102210002E2F2E2E2F2E2E2F2E2E2F2E2E2F64725F
:1022200069766572732F686333325F6C6C5F6472BA
:10223000697665722F7372632F686333325F6C6CDB
:102240005F6932632E6300002DE9F04F8DB00546C3
:102250000C4616464FF0000A00200A900220099012
:102260000020059004B116B96FF0020AE0E000BF4B
:102270007448854202D07448854200D104E040F29F
:102280000D1172A0FFF7AAF900BF00BF606820B16E
:102290007D496068884200D804E04FF487716BA0E4
:1022A000FFF79CF900BF00BF2068072800D804E0B2
:1022B00040F20F1165A0FFF791F900BF7348006A63
:1022C00000F007017248006820FA01F82178012027
:1022D00000FA01F7A0680C9060680B90286B00F082
:1022E000100020B1286B00F00300401C0A90206809
:1022F00008B903200990002F7ED03846FEF76EF80B
:1023000004900B98FEF76AF803904046FEF766F8D3
:1023100002900399FEF7D6F883460499FEF7D2F8A7
:1023200081460C98FEF75AF804900A98FEF756F882
:102330004FF080410190FEF793F802900998FEF764
:102340004DF84FF080410190FEF78AF883460299DC
:10235000FDF7ECFF03900499FDF7E8FF079048466E
:102360000799FEF735F806904846FEF764F90390A2
:10237000FEF734F849460490FEF72DF883464FF0F7
:102380007C51FEF793F90CD84846FEF754F90490B7
:10239000FEF724F883464FF07E51FDF7C7FF8146D4
:1023A00006E04846FEF747F98346FEF717F88146F0
:1023B00048460799FEF770F902D86FF0020A37E035
:1023C00034490698FEF772F902D26FF0020A2FE044
:1023D0004846FEF730F9B8FBF0F0B0FBF7F0089094
:1023E0000898FDF7FBFF04900898FDF7F7FF0390AE
:1023F0000B98FDF7F3FF00E018E002900399FDF75A
:10240000E7FF83460499FEF75DF805900698FEF70E
:1024100012F94008218840EA014B0698FEF70BF9B3
:10242000A0EB50004BEA0020E86201E06FF0020AE6
:1024300026B1BAF1000F01D10598306050460DB0B9
:10244000BDE8F08F00B4034000B803402E2E2F2EBD
:102450002E2F2E2E2F2E2E2F2E2E2F2E2E2F64721D
:1024600069766572732F686333325F6C6C5F647278
:10247000697665722F7372632F686333325F6C6C99
:102480005F6932632E630000801A06000040054039
:102490000080FF1F0000FF4370B504460D4600BFDB
:1024A0001148844202D01148844200D104E040F235
:1024B00026210FA0FFF792F800BF00BF0DB1012D3C
:1024C00000D104E040F2272109A0FFF787F800BF00
:1024D000012D04D1E06840F48060E06003E0E06832
:1024E00020F48060E06070BD00B4034000B8034099
:1024F0002E2E2F2E2E2F2E2E2F2E2E2F2E2E2F2EF7
:102500002E2F647269766572732F686333325F6C45
:102510006C5F6472697665722F7372632F686333C0
:10252000325F6C6C5F6932632E63000070B50446E5
:102530000D4600BF0E48844202D00E48844200D1AE
:1025400004E040F2B1210CA0FFF748F800BF00BF43
:102550002DB1184828431749884200D104E040F2C1
:10256000B22105A0FFF73AF800BF256270BD000058
:1025700000B4034000B803402E2E2F2E2E2F2E2EF7
:102580002F2E2E2F2E2E2F2E2E2F647269766572EF
:10259000732F686333325F6C6C5F64726976657247
:1025A0002F7372632F686333325F6C6C5F693263C1
:1025B0002E6300005F56F00070B504460D4600BF64
:1025C0000E48844202D00E48844200D104E040F21A
:1025D00003210CA0FFF702F800BF00BF0DB1012DD1
:1025E00000D104E04FF4017106A0FEF7F7FF00BF31
:1025F000206865F30000206070BD000000B4034057
:1026000000B803402E2E2F2E2E2F2E2E2F2E2E2FA3
:102610002E2E2F2E2E2F647269766572732F6863AB
:1026200033325F6C6C5F6472697665722F737263AC
:102630002F686333325F6C6C5F6932632E63000016
:1026400010B5044600BF0B48844202D00A488442B9
:1026500000D104E04FF4AA7108A0FEF7BFFF00BF4D
:10266000206820F001002060206840F400402060D5
:10267000002010BD00B4034000B803402E2E2F2EC2
:102680002E2F2E2E2F2E2E2F2E2E2F2E2E2F6472EB
:1026900069766572732F686333325F6C6C5F647246
:1026A000697665722F7372632F686333325F6C6C67
:1026B0005F6932632E63000010B5044600BF08480E
:1026C000844202D00748844200D103E0D02106A012
:1026D000FEF784FF00BF206840F08000206010BD3E
:1026E00000B4034000B803402E2E2F2E2E2F2E2E86
:1026F0002F2E2E2F2E2E2F2E2E2F6472697665727E
:10270000732F686333325F6C6C5F647269766572D5
:102710002F7372632F686333325F6C6C5F6932634F
:102720002E63000010B5044600BF0848844202D062
:102730000748844200D103E0C32106A0FEF74EFF04
:1027400000BF206840F48070206010BD00B40340DA
:1027500000B803402E2E2F2E2E2F2E2E2F2E2E2F52
:102760002E2E2F2E2E2F647269766572732F68635A
:1027700033325F6C6C5F6472697665722F7372635B
:102780002F686333325F6C6C5F6932632E630000C5
:1027900010B5044600BF0848844202D0074884426E
:1027A00000D103E0DD2106A0FEF718FF00BF20687E
:1027B00040F40070206010BD00B4034000B8034036
:1027C0002E2E2F2E2E2F2E2E2F2E2E2F2E2E2F2E24
:1027D0002E2F647269766572732F686333325F6C73
:1027E0006C5F6472697665722F7372632F686333EE
:1027F000325F6C6C5F6932632E63000070B5044613
:102800000D4600BF1048844202D01048844200D1D7
:1028100004E04FF428710EA0FEF7E0FE00BF00BFF9
:102820002DB11A4828431949884200D104E040F2EA
:10283000A12107A0FEF7D2FE00BFE069284008B141
:10284000012070BD0020FCE700B4034000B8034045
:102850002E2E2F2E2E2F2E2E2F2E2E2F2E2E2F2E93
:102860002E2F647269766572732F686333325F6CE2
:102870006C5F6472697665722F7372632F6863335D
:10288000325F6C6C5F6932632E630000DF56F78F36
:102890002DE9F04104460D46174615B96FF00206C2
:1028A00048E000BF2548844202D02548844200D138
:1028B00004E04FF4BF7123A0FEF790FE00BF00BFFD
:1028C000686820B12E496868884200D804E040F268
:1028D0007F111CA0FEF782FE00BF00BF28680728FA
:1028E00000D804E04FF4C07116A0FEF777FE00BFD9
:1028F000206820F001002060206840F40040206043
:10290000206840F0010020603A4629462046FFF743
:102910009BFC0646206820F040002060206820F4E0
:1029200000402060206820F001002060206920F431
:10293000805020613046BDE8F081000000B40340C3
:1029400000B803402E2E2F2E2E2F2E2E2F2E2E2F60
:102950002E2E2F2E2E2F647269766572732F686368
:1029600033325F6C6C5F6472697665722F73726369
:102970002F686333325F6C6C5F6932632E630000D3
:10298000801A06002DE9F04706460F46154699467F
:102990004FF0000800BF3048864202D02F488642E0
:1029A00000D104E040F2F4412DA0FEF717FE00BF75
:1029B000002F4CD0B06800F0800A00243FE04B4666
:1029C00001224021304600F0B1FA8046BAF1000FF2
:1029D0000AD1022D15D3A81EA04212D14FF4806156
:1029E0003046FFF7E9FB0CE0681EA04204D000214E
:1029F0003046FFF7E1FB04E04FF480613046FFF71B
:102A0000DBFBB8F1000F18D1681EA04206D11021DF
:102A10003046FFF78BFD3046FFF7BAFE304600F038
:102A20003DF83855681EA04208D14B4601221021BE
:102A3000304600F07BFA804600E002E0641CAC42C5
:102A4000BDD300BF00213046FFF7B6FB01E06FF0B9
:102A500002084046BDE8F08700B4034000B80340D8
:102A60002E2E2F2E2E2F2E2E2F2E2E2F2E2E2F2E81
:102A70002E2F647269766572732F686333325F6CD0
:102A80006C5F6472697665722F7372632F6863334B
:102A9000325F6C6C5F6932632E63000010B50446D0
:102AA00000BF0848844202D00748844200D104E0B5
:102AB00040F2653105A0FEF791FD00BF94F82800B3
:102AC00010BD000000B4034000B803402E2E2F2E8E
:102AD0002E2F2E2E2F2E2E2F2E2E2F2E2E2F647297
:102AE00069766572732F686333325F6C6C5F6472F2
:102AF000697665722F7372632F686333325F6C6C13
:102B00005F6932632E63000070B504460E4600BF55
:102B10001248844202D01248844200D104E040F2BC
:102B2000FD3110A0FEF75AFD00BF334601225104CB
:102B3000204600F0FBF905466DB901212046FFF75C
:102B4000F5FC2046FFF7B8FD334601221449204624
:102B500000F0ECF90546284670BD000000B40340C3
:102B600000B803402E2E2F2E2E2F2E2E2F2E2E2F3E
:102B70002E2E2F2E2E2F647269766572732F686346
:102B800033325F6C6C5F6472697665722F73726347
:102B90002F686333325F6C6C5F6932632E630000B1
:102BA0000100020070B504460D4600BF0E48844285
:102BB00002D00E48844200D104E040F231310CA032
:102BC000FEF70CFD00BF00BF0DB1012D00D104E0E8
:102BD00040F2323106A0FEF701FD00BF206865F328
:102BE000CF30206070BD000000B4034000B8034047
:102BF0002E2E2F2E2E2F2E2E2F2E2E2F2E2E2F2EF0
:102C00002E2F647269766572732F686333325F6C3E
:102C10006C5F6472697665722F7372632F686333B9
:102C2000325F6C6C5F6932632E63000070B50446DE
:102C30000E4600BF1048844202D01048844200D1A2
:102C400004E040F2E1310EA0FEF7C8FC00BF3346BD
:102C500000224FF40031204600F068F905464DB9D6
:102C60002046FFF75FFD334601221449204600F05D
:102C70005DF90546284670BD00B4034000B8034026
:102C80002E2E2F2E2E2F2E2E2F2E2E2F2E2E2F2E5F
:102C90002E2F647269766572732F686333325F6CAE
:102CA0006C5F6472697665722F7372632F68633329
:102CB000325F6C6C5F6932632E63000001000200BA
:102CC00070B505460C4600BF1348854202D0134834
:102CD000854200D104E040F22F5111A0FEF77EFCA6
:102CE00000BF04E010212846FFF720FC641E1021DD
:102CF0002846FFF783FD012801D1002CF2D1284698
:102D0000FFF746FD234601221021284600F00EF968
:102D10000646304670BD000000B4034000B80340D2
:102D20002E2E2F2E2E2F2E2E2F2E2E2F2E2E2F2EBE
:102D30002E2F647269766572732F686333325F6C0D
:102D40006C5F6472697665722F7372632F68633388
:102D5000325F6C6C5F6932632E63000001460020B5
:102D600009B9C01E05E04CF250324A6000228A6068
:102D70000A6070472DE9F04106460F461446984612
:102D800000BF2648864202D02548864200D104E092
:102D900040F21E4123A0FEF721FC00BF00BF0CB192
:102DA000012C00D104E040F21F411EA0FEF716FCEA
:102DB00000BF00BF7F2F00D804E04FF4846119A04A
:102DC000FEF70CFC00BF434601228021304600F094
:102DD000ADF80546FDB9780644EA1061304600F0CA
:102DE0000FF93CB9434601220821304600F09EF815
:102DF000054607E0434600224FF48021304600F0AC
:102E000095F805463DB94FF480513046FFF7F6FC82
:102E1000012800D1851E2846BDE8F08100B403409A
:102E200000B803402E2E2F2E2E2F2E2E2F2E2E2F7B
:102E30002E2E2F2E2E2F647269766572732F686383
:102E400033325F6C6C5F6472697665722F73726384
:102E50002F686333325F6C6C5F6932632E630000EE
:102E60002DE9F84304460D461746984600260020F3
:102E7000009000BF1C48844202D01C48844200D10C
:102E800004E040F292411AA0FEF7A8FB00BF2DB368
:102E90001EE0434601228021204600F047F8064606
:102EA000B6B90098295C204600F0AAF843460122F2
:102EB0000821204600F03AF806464FF4805120469B
:102EC000FFF79CFC012800D107E00098401C00900F
:102ED0000098B84201D0002EDBD001E06FF002066E
:102EE0003046BDE8F883000000B4034000B803405A
:102EF0002E2E2F2E2E2F2E2E2F2E2E2F2E2E2F2EED
:102F00002E2F647269766572732F686333325F6C3B
:102F10006C5F6472697665722F7372632F686333B6
:102F2000325F6C6C5F6932632E6300002DE9F047FD
:102F300006460C4615461F466FF0070900BF1E489F
:102F4000864202D01D48864200D103E0A7211CA082
:102F5000FEF744FB00BF00BF2CB12848204327499F
:102F6000884200D103E0A82115A0FEF737FB00BF7F
:102F700000BF0DB1012D00D103E0A92110A0FEF783
:102F80002DFB00BF00BFF06900EA0408012D01D14C
:102F9000444503D025B9B8F1000F01D14FF0000925
:102FA000B9F1000F00D007B901E07F1EEBE700BFC9
:102FB0004846BDE8F087000000B4034000B8034075
:102FC0002E2E2F2E2E2F2E2E2F2E2E2F2E2E2F2E1C
:102FD0002E2F647269766572732F686333325F6C6B
:102FE0006C5F6472697665722F7372632F686333E6
:102FF000325F6C6C5F6932632E630000DF56F78FBF
:1030000070B504460D4600BF0748844202D0074809
:10301000844200D104E040F2573105A0FEF7DEFA09
:1030200000BF84F8245070BD00B4034000B80340D2
:103030002E2E2F2E2E2F2E2E2F2E2E2F2E2E2F2EAB
:103040002E2F647269766572732F686333325F6CFA
:103050006C5F6472697665722F7372632F68633375
:10306000325F6C6C5F6932632E63000010B50349F8
:1030700008688047BFF34F8F10BD00002080FF1FFE
:1030800010B5034948688047BFF34F8F10BD00005B
:103090002080FF1F10B5034988688047BFF34F8F1A
:1030A00010BD00002080FF1F10B50349C86880478D
:1030B000BFF34F8F10BD00002080FF1F10B50349E4
:1030C00008698047BFF34F8F10BD00002080FF1FAD
:1030D00010B5034948698047BFF34F8F10BD00000A
:1030E0002080FF1F10B5034988698047BFF34F8FC9
:1030F00010BD00002080FF1F10B50349C86980473C
:10310000BFF34F8F10BD00002080FF1F10B5034993
:10311000086A8047BFF34F8F10BD00002080FF1F5B
:1031200010B50349486A8047BFF34F8F10BD0000B8
:103130002080FF1F10B50349886A8047BFF34F8F77
:1031400010BD00002080FF1F10B50349C86A8047EA
:10315000BFF34F8F10BD00002080FF1F10B5034943
:10316000086B8047BFF34F8F10BD00002080FF1F0A
:1031700010B50349486B8047BFF34F8F10BD000067
:103180002080FF1F10B50349886B8047BFF34F8F26
:1031900010BD00002080FF1F10B50349C86B804799
:1031A000BFF34F8F10BD00002080FF1F10B50446F5
:1031B00004F0010048B100BF40F223101449086038
:1031C00043F21020086000BF00BF04F0020028B1E5
:1031D00000BF10481049086100BF00BF04F00400A0
:1031E00030B100BF4AF201500C49088000BF00BF57
:1031F00004F0100018B14AF2085000F06BF804F027
:10320000400018B14AF2035000F064F810BD00000D
:10321000000401400100A5A500800440FC3B0540DE
:103220002DE9F04104460D4616466FF00207002EC8
:1032300024D029462046B0470746A7B900BF114809
:10324000046000BF0DB9002108E00F49096AC1F30D
:1032500002620E490968D140B1FBF5F108460C49FC
:10326000086000BF0AE04FF0FF3700BF07B904E075
:103270004FF4BE7107A0FEF7B1F900BF3846BDE8B4
:10328000F08100001080FF1F004005400080FF1FFC
:103290001480FF1F2E2E2F2E2E2F2E2E2F2E2E2F50
:1032A0002E2E2F2E2E2F647269766572732F68630F
:1032B00033325F6C6C5F6472697665722F73726310
:1032C0002F686333325F6C6C5F7574696C697479F5
:1032D0002E630000034909880143034AA2F8FE1344
:1032E00070470000FE430540004005407FB505469D
:1032F0000C460026B84800680390B7484068029022
:10330000B54880680190B448C068009000BF04F0E0
:10331000E060E8B104F0E060B0F1807F18D004F024
:10332000E060B0F1007F13D004F0E060B0F1407FC6
:103330000ED004F0E060B0F1806F09D004F0E060DE
:10334000B0F1A06F04D004F0E060B0F1C06F00D124
:1033500004E040F23B21A1A0FEF740F900BF00BF0E
:1033600004F07000B8B104F07000102813D004F01D
:10337000700020280FD004F0700030280BD004F02B
:103380007000402807D004F07000502803D004F0EB
:103390007000602800D104E04FF40F718FA0FEF799
:1033A0001DF900BF00BF04F4E020E8B104F4E02000
:1033B000B0F5803F18D004F4E020B0F5003F13D002
:1033C00004F4E020B0F5403F0ED004F4E020B0F566
:1033D000802F09D004F4E020B0F5A02F04D004F42D
:1033E000E020B0F5C02F00D104E040F23D217BA0E9
:1033F000FEF7F4F800BF00BF04F4E000E8B104F405
:10340000E000B0F5801F18D004F4E000B0F5001F14
:1034100013D004F4E000B0F5401F0ED004F4E00037
:10342000B0F5800F09D004F4E000B0F5A00F04D08F
:1034300004F4E000B0F5C00F00D104E040F23E21FA
:1034400066A0FEF7CBF800BF00BF04F00700B8B1DC
:1034500004F00700012813D004F0070002280FD061
:1034600004F0070003280BD004F00700042807D05D
:1034700004F00700052803D004F00700062800D157
:1034800004E040F23F2155A0FEF7A8F800BF00BFBE
:1034900004F4E060E8B104F4E060B0F5807F18D097
:1034A00004F4E060B0F5007F13D004F4E060B0F500
:1034B000407F0ED004F4E060B0F5806F09D004F4D2
:1034C000E060B0F5A06F04D004F4E060B0F5C06F28
:1034D00000D104E04FF4107140A0FEF77FF800BF68
:1034E00000BF04F4E040E8B104F4E040B0F5805FD0
:1034F00018D004F4E040B0F5005F13D004F4E040CD
:10350000B0F5405F0ED004F4E040B0F5804F09D034
:1035100004F4E040B0F5A04F04D004F4E040B0F56E
:10352000C04F00D104E040F241212CA0FEF756F834
:1035300000BF00BF3848284000B104E040F24221FB
:1035400026A0FEF74BF800BF00BF3448008800F00B
:10355000010000B104E040F2432120A0FEF73EF854
:1035600000BF2F48007800F00700052817D101267A
:1035700000BF1948006900F0010000B104E040F20A
:103580004A2116A0FEF72AF800BF26481249086013
:10359000C01248608860C8601E20FEF787F8204887
:1035A0002638006AA84304EA050108431C49263965
:1035B00008621E20FEF77AF8012E0BD10649039807
:1035C000086002984860019888600098C8601E20D2
:1035D000FEF76CF87FBD0000008004402E2E2F2ED9
:1035E0002E2F2E2E2F2E2E2F2E2E2F2E2E2F64727C
:1035F00069766572732F686333325F6C6C5F6472D7
:10360000697665722F7372632F686333325F6C6CF7
:103610005F636C6B2E63000077777707FE4305408E
:10362000264005400EFAFFFF7FB5044600253048CE
:10363000006803902E48406802902D4880680190F1
:103640002B48C068009000BF4CB1012C07D0022C61
:1036500005D0032C03D0042C01D0052C00D104E0AC
:1036600040F2D11123A0FDF7B9FF00BF00BF3048E1
:10367000008800F0010000B104E04FF4E9711DA0E2
:10368000FDF7ACFF00BF2B48007800F007000528CD
:1036900001D0052C17D1012500BF1548006900F0A5
:1036A000010000B104E04FF4ED7112A0FDF796FFA8
:1036B00000BF21480E490860C01248608860C86099
:1036C0001E20FDF7F3FF1B4804701E20FDF7EEFFE0
:1036D000012D0BD1064903980860029848600198B3
:1036E00088600098C8601E20FDF7E0FF7FBD0000E5
:1036F000008004402E2E2F2E2E2F2E2E2F2E2E2FDA
:103700002E2E2F2E2E2F647269766572732F6863AA
:1037100033325F6C6C5F6472697665722F737263AB
:103720002F686333325F6C6C5F636C6B2E630000D9
:10373000FE430540264005400EFAFFFF2DE9F34FFA
:1037400091B08A468D4B0FCB08AC0FC44FF0FF30C1
:10375000079000BF8A49119888420BD08949119877
:10376000884207D088491198884203D08749119828
:10377000884200D104E040F23A2185A0FDF72EFFF7
:1037800000BFDAF80040DAF80490002C7DD0B9F1DF
:10379000000FFBD01198406900F4600500BF5DB1D7
:1037A000B5F5001F08D0B5F5C00F05D0B5F5200F51
:1037B00002D0B5F5400F00D104E04FF4107174A0B1
:1037C000FDF70CFF00BF680D08A931F8105009FB88
:1037D00005F04000B4FBF0F0461EFF2E0FD8CAF8EB
:1037E000086009FB05F04000B4FBF0F100FB11405C
:1037F0000D900D9820B90020CAF8100007906FE0D6
:103800000220A0FB053200204FF0010C16EB0C0C3F
:103810004041A3FB0C1E02FB0CE203FB0022002034
:10382000A1FB097302FB093201FB00284FF48071F0
:103830000022A7FB01C308FB013107FB021052085D
:103840004FEA34031CEB0301504122460023CDE92B
:10385000041008460599FCF717FD8021B0EB010B19
:10386000BBF17F0F3CD8CAF80CB04FF4807C00222B
:103870003946A1FB0C0E08FB0CE307FB0238074698
:10388000002080221BEB020200E072E040EB00030C
:103890000021A2FB040C03FB04C302FB0131CDE9B0
:1038A0000E0138464146FCF7BAFECDE90201DDE9DA
:1038B0000E01FCF7B4FECDE90001DDE90223FCF7BF
:1038C0003FFECDE90401FCF7CAFE4FF07E510690A1
:1038D000FCF77EFD0C900C98CAF8100000200790B1
:1038E0000798B0F1FF3F44D104EB8400410009FB8D
:1038F00005F04000B1FBF0F0401D0A21B0FBF1F0F3
:10390000461EFF2E35D8CAF808600220A0FB0532FB
:1039100000204FF0010C16EB0C0C4041A3FB0C1ED9
:1039200002FB0CE203FB00220023A1FB097C02FB4B
:1039300009C201FB032838464146FCF770FECDE979
:1039400002012046FCF74FFDCDE90001DDE902232D
:10395000FCF7F6FDCDE90401FCF781FE4FF07E5146
:103960000690FCF735FD0C900C98CAF8100000206A
:103970000790079813B0BDE8F08F0000884700005B
:1039800000CC014000D00140000C02400010024079
:103990002E2E2F2E2E2F2E2E2F2E2E2F2E2E2F2E42
:1039A0002E2F647269766572732F686333325F6C91
:1039B0006C5F6472697665722F7372632F6863330C
:1039C000325F6C6C5F75736172742E63000000006F
:1039D00070B5294D2D6805F001051DB1274D284E04
:1039E000356002E0274D264E3560274D2D7805F0D5
:1039F000070006283CD2DFE800F003080C11151A76
:103A00001F4D2D68214E356033E0214D1F4E35602E
:103A10002FE04FF400451D4E35602AE01C4D1B4E33
:103A2000356026E04FF40045184E356021E0164D14
:103A3000DA352D68C5F30722134D263DD5F8005120
:103A40002B0F114DDA352D6805F00304114DED698A
:103A50000DB90F4901E00A4D2968651CB1FBF5F568
:103A6000561C75435E1CB5FBF6F5084E356000E04C
:103A700000BF00BF70BD0000840601400024F400B8
:103A80000480FF1F002D3101264005400080FF1FEC
:103A900000127A000020A84200B5FFF799FF00202D
:103AA0000149086000BD000008ED00E02DE9F84381
:103AB00004460E4615461F464FF000081CB1A0688C
:103AC00008B1606810B96FF002081BE0B01DC0B209
:103AD0008DF8000001220DF101016846A3689847A6
:103AE0002FB99DF80100A8438DF8010004E09DF86E
:103AF000010028438DF8010001220DF10101684603
:103B0000636898474046BDE8F88338B50446002509
:103B10002CB1E06818B1206808B1606810B96FF086
:103B2000020518E0E068804720688047FF208DF894
:103B3000010006208DF8000001220DF10101684608
:103B40006368984707208DF8000001220DF10101FC
:103B5000684663689847284638BD2DE9F84304460F
:103B60000E4615461F464FF000081CB1A06808B16C
:103B7000606810B96FF002081BE0B01CC0B28DF88D
:103B8000000001220DF101016846A36898472FB992
:103B90009DF80100A8438DF8010004E09DF80100A4
:103BA00028438DF8010001220DF101016846636888
:103BB00098474046BDE8F8832DE9F04F91B0834621
:103BC0008A4601200890801E079000BF8E488345DA
:103BD0000ED08E4883450BD08D48834508D08D4844
:103BE000834505D08C48834502D08C48834500D15D
:103BF00004E040F295118AA0FDF7F0FC00BFDAF86E
:103C00000040DAF80480002C7DD0B8F1000FFBD022
:103C1000DBF80C00C0F3C0394FEAC800C9F102015B
:103C20004843B4FBF0F0471EFF2F11D8CAF80870C4
:103C30004FEAC800C9F102014843B4FBF0F100FBB0
:103C400011400B900B9820B90020CAF81000079083
:103C500080E0002210461346D9F1020260EB030017
:103C60004FF0080C0023A2FB0C1E00FB0CE002FB33
:103C700003024FF0010C17EB0C0C5B41A1FB0C0E87
:103C800002FB0CE201FB03220021A0FB083C02FB2B
:103C900008C200FB0120CDE90E30DDE90E2108024B
:103CA00040EA12601102CDE90E10002040084FEAF0
:103CB0003403DDE90E219D1840EB01060020D5F10B
:103CC000FF31B04108D22246002328463146FCF796
:103CD000DBFA80380A9003E0B5FBF4F080380A90F4
:103CE0000A987F2834D80A98CAF80C00DDE90E56E5
:103CF000002180230A98C21841EB0103A2FB040CA7
:103D000003FB04C300E064E002FB0131CDE90C01D8
:103D100028463146FCF783FCCDE90201DDE90C01C0
:103D2000FCF77DFCCDE90001DDE90223FCF708FC8E
:103D3000CDE90401FCF793FC4FF07E510690FCF7AF
:103D400047FB09900998CAF810000020079001E08D
:103D5000002008900898E0BB4FEAC800C9F10201B2
:103D6000484304EB84014900B1FBF0F0401D0A21F7
:103D7000B0FBF1F0471EFF2F41D8CAF808700021B0
:103D8000D9F1020261EB010008238C46A2FB031E5D
:103D900000FB03E002FB0C0300204FF0010C17EBCB
:103DA0000C0C4041A1FB0C2E03FB0CE301FB00318A
:103DB0000020A2FB085301FB083102FB0016284635
:103DC0003146FCF72CFCCDE902012046FCF70BFB49
:103DD00000E014E0CDE90001DDE90223FCF7B0FBCF
:103DE000CDE90401FCF73BFC4FF07E510690FCF757
:103DF000EFFA09900998CAF8100000200790079878
:103E000011B0BDE8F08F000000CC014000D00140AF
:103E100000D40140000C0240001002400014024097
:103E20002E2E2F2E2E2F2E2E2F2E2E2F2E2E2F2EAD
:103E30002E2F647269766572732F686333325F6CFC
:103E40006C5F6472697665722F7372632F68633377
:103E5000325F6C6C5F75736172742E6300000000DA
:103E60002DE9F04104460D46164600BF4548844200
:103E70000ED0454884420BD04448844208D0444880
:103E8000844205D04348844202D04348844200D152
:103E900004E040F2A14141A0FDF7A0FB00BF00BF3C
:103EA0000EB1012E00D104E040F2A2413BA0FDF78B
:103EB00095FB00BF00BF2DB14848284347498842C1
:103EC00000D104E040F2A34134A0FDF787FB00BF1E
:103ED00000BF2E4884420BD02F48844208D02B4884
:103EE000844206D02C48844203D03D48284000B983
:103EF00004E040F2A44129A0FDF770FB00BF00BF21
:103F00002048844217D02048844214D0204884425C
:103F100011D0204884420ED01A4884420CD01A484E
:103F2000844209D01A48844206D01A48844203D0F9
:103F300005F0030000B904E040F2A54117A0FDF729
:103F40004DFB00BFAFB247B1012E03D1E06838434B
:103F5000E06002E0E068B843E060214828404FEAB2
:103F60001048B8F1000F0AD0012E04D1206940EAB0
:103F70000800206103E0206920EA08002061BDE814
:103F8000F081000000CC014000D0014000D401408D
:103F9000000C024000100240001402402E2E2F2E72
:103FA0002E2F2E2E2F2E2E2F2E2E2F2E2E2F6472B2
:103FB00069766572732F686333325F6C6C5F64720D
:103FC000697665722F7372632F686333325F6C6C2E
:103FD0005F75736172742E6300000000EF013E4153
:103FE00000001E410146044A126AC2F30213034A4A
:103FF000126822FA03F07047004005400080FF1F5E
:104000002DE9F041044600BF194884420ED01948FA
:1040100084420BD01848844208D01848844205D006
:104020001748844202D01748844200D104E04FF47C
:10403000247115A0FDF7D2FA00BF2046FFF7D2FF8A
:104040000546A06900F01000102806D1A06900F014
:104050000301802000FA01F605E0A0698007410F06
:10406000012000FA01F6B5FBF6F73846BDE8F0810D
:1040700000CC014000D0014000D40140000C0240BF
:1040800000100240001402402E2E2F2E2E2F2E2E16
:104090002F2E2E2F2E2E2F2E2E2F647269766572C4
:1040A000732F686333325F6C6C5F6472697665721C
:1040B0002F7372632F686333325F6C6C5F7573614B
:1040C00072742E63000000002DE9F04186B00446B2
:1040D0000E46174600BF06B104E040F256612FA01D
:1040E000FDF77CFA00BF00BF3C4884420ED03C483C
:1040F00084420BD03B48844208D03B48844205D0E0
:104100003A48844202D03A48844200D104E040F266
:10411000576122A0FDF762FA00BF2046FFF770FF4B
:104120000190029600200590FF200490E06800F0C6
:104130008078B8F1000F0FD1606900F0200028B935
:1041400001A92046FFF738FD05460AE001A92046EF
:10415000FFF7F4FA054604E001A92046FDF71CF933
:1041600005469DB9DDE9031040EA01204FF67F7155
:104170000840A1684FF67F7291430843A0600498FD
:10418000FF2803D0E06840F00050E0600FB10598D0
:104190003860284606B0BDE8F08100002E2E2F2E94
:1041A0002E2F2E2E2F2E2E2F2E2E2F2E2E2F6472B0
:1041B00069766572732F686333325F6C6C5F64720B
:1041C000697665722F7372632F686333325F6C6C2C
:1041D0005F75736172742E630000000000CC0140B3
:1041E00000D0014000D40140000C02400010024009
:1041F0000014024070B504460D4600BF15488442C5
:104200000ED0154884420BD01448844208D014487C
:10421000844205D01348844202D01348844200D11E
:1042200004E040F2A55111A0FDF7D8F900BF00BF8E
:10423000132D00D804E040F2A6510CA0FDF7CEF9F2
:1042400000BFA06920F0130005F013010843A0612E
:1042500070BD000000CC014000D0014000D40140FE
:10426000000C024000100240001402402E2E2F2E9F
:104270002E2F2E2E2F2E2E2F2E2E2F2E2E2F6472DF
:1042800069766572732F686333325F6C6C5F64723A
:10429000697665722F7372632F686333325F6C6C5B
:1042A0005F75736172742E63000000002DE9F047A2
:1042B00005460C4691466FF0020A002C79D000BFEB
:1042C0006B4885420ED06B4885420BD06A488542C8
:1042D00008D06A48854205D06948854202D06948BD
:1042E000854200D104E040F28E3167A0FDF776F9F7
:1042F00000BF00BF2068B0F5805F01D0206800B922
:1043000004E040F28F3160A0FDF768F900BF00BF04
:10431000A068B0F5006F01D0A06800B904E04FF4C8
:10432000647159A0FDF75AF900BF00BFA069B0F54C
:10433000C06F05D0A069B0F5806F01D0A06900B949
:1043400004E040F2913150A0FDF748F900BF00BFF2
:10435000206918B12069B0F5805F00D104E040F217
:10436000923149A0FDF73AF900BF00BF606918B16A
:104370006069B0F5005F00D104E040F2933142A0E3
:10438000FDF72CF900BF00BFE069B0F5004F01D088
:10439000E06900B904E04FF465713BA0FDF71EF938
:1043A00000BF00BF206AB0F1805F01D0206A08B969
:1043B00005E059E040F2953133A0FDF70FF900BF59
:1043C00000BF606A18B1606AB0F1004F00D104E02C
:1043D00040F296312CA0FDF701F900BF00BFA06AA2
:1043E00058B1A06AB0F5007F07D0A06AB0F5807F11
:1043F00003D0A06AB0F5407F00D104E040F29731CD
:1044000021A0FDF7EBF800BF2169A0690843216AEC
:104410000843E1690843616A40EA0106206840F404
:10442000C060A1680843616940EA0107D4F82880A8
:10443000EE602F61C5F81480206898B900BF6068ED
:10444000132800D804E040F2A5310FA0FDF7C6F80C
:1044500000BF6068A8614A462846E168FFF734FE5D
:10446000824601E04FF0000A5046BDE8F0870000A8
:1044700000CC014000D0014000D40140000C0240BB
:1044800000100240001402402E2E2F2E2E2F2E2E12
:104490002F2E2E2F2E2E2F2E2E2F647269766572C0
:1044A000732F686333325F6C6C5F64726976657218
:1044B0002F7372632F686333325F6C6C5F75736147
:1044C00072742E630000000001466FF0020089B193
:1044D00000220A604A608A604FF41652CA600022C5
:1044E0000A614A618A61CA610A62C2074A62D20DE0
:1044F0008A620020704700000FB4054B10B503A975
:10450000044A029800F018F810BC5DF814FB000093
:10451000F14600001C80FF1F02E008C8121F08C1FE
:10452000002AFAD170477047002001E001C1121F34
:10453000002AFBD1704700002DE9FF4F8BB09A464F
:104540000F460546002606E025280BD052460D9959
:1045500090476D1C761C28780028F5D10FB03046A6
:10456000BDE8F08F0024A0460122604900E004432A
:1045700015F8013F203B02FA03F00842F7D12878F2
:104580002E2817D115F8010F44F004042A280ED064
:104590006FF02F022878A0F1300109290AD808EB22
:1045A000880102EB410100EB01086D1CF2E757F8AE
:1045B000048B6D1C287869283ED006DC0028CDD0FD
:1045C00063280BD0642804D136E0732810D07528F6
:1045D0004BD052460D999047761C85E017F8040B96
:1045E0008DF8000000208DF80100E946012003E06D
:1045F00057F8049B4FF0FF3061074FF0000401D4DF
:104600000AE0641C44450DDA8442FADB19F8041010
:104610000029F6D106E0641C8442FCDB19F8041082
:104620000029F8D1264404E019F8010B52460D99EF
:104630009047641EF8D257E001CF4FF00A0B0028D4
:1046400002DA40422D2102E0210504D52B218DF80C
:104650002410012103E0E10705D02021F7E70DF147
:10466000200908910CE00021F9E701CF4FF00A0B77
:10467000F9E75946FCF724F801F1300209F8012D59
:104680000028F6D1ADEB090000F1200B600701D442
:104690004FF00108D84502DDA8EB0B0000E0002038
:1046A0008046002406E009A85246005D0D99904717
:1046B000641C761C08988442F5DB04E030205246E6
:1046C0000D999047761CB8F10001A8F10108F5DCBE
:1046D00005E019F8010B52460D999047761CBBF185
:1046E0000001ABF1010BF4DC6D1C34E7092801007B
:1046F00070B504460D46E0B2FCF792FF08B92046BB
:1047000070BD4FF0FF30FBE74720FEF74FFDFCF791
:10471000A3F8FCF7F3F9FCF71AFA094A4FF4E13170
:104720000848FEF77DFD08A0FFF7E6FE0CA0FFF7A6
:10473000E3FE01210320FDF727F900BFFEE700009B
:10474000690B000000D001405468652063617074FB
:104750007572652076616C75653A200D0A0000005F
:1047600054494D45525F544553545F30303920749D
:104770006573742020726573756C742069733A20B8
:104780004641494C00000000200040005D008000D0
:10479000BA0000017401000200CC014000D00140C9
:1047A00000D40140000C02400010024000140240FE
:1047B00002004000080003000001080000000100A2
:1047C00001000000100000000000020002000000D4
:1047D0001100000001004000400000001600000031
:1047E00000000000010000000200000003000000C3
:1047F0001000000011000000120000001300000073
:104800002E2E2F2E2E2F2E2E2F2E2E2F2E2E2F2EC3
:104810002E2F647269766572732F686333325F6C12
:104820006C5F6472697665722F7372632F6863338D
:10483000325F6C6C5F696E74657272757074732E22
:1048400063000000644800000880FF1F180000009B
:10485000184500007C4800002080FF1F580C000015
:1048600028450000000000000000000000000000DB
:0C4870000000000000000000000000003C
:0400000500000251A4
:00000001FF
